{
  "contractName": "Ownable",
  "abi": [
    {
      "inputs": [],
      "stateMutability": "payable",
      "type": "constructor",
      "payable": true
    },
    {
      "anonymous": false,
      "inputs": [
        {
          "indexed": true,
          "internalType": "address",
          "name": "account",
          "type": "address"
        }
      ],
      "name": "ConsumerAdded",
      "type": "event"
    },
    {
      "anonymous": false,
      "inputs": [
        {
          "indexed": true,
          "internalType": "address",
          "name": "account",
          "type": "address"
        }
      ],
      "name": "ConsumerRemoved",
      "type": "event"
    },
    {
      "anonymous": false,
      "inputs": [
        {
          "indexed": true,
          "internalType": "address",
          "name": "account",
          "type": "address"
        }
      ],
      "name": "DistributorAdded",
      "type": "event"
    },
    {
      "anonymous": false,
      "inputs": [
        {
          "indexed": true,
          "internalType": "address",
          "name": "account",
          "type": "address"
        }
      ],
      "name": "DistributorRemoved",
      "type": "event"
    },
    {
      "anonymous": false,
      "inputs": [
        {
          "indexed": true,
          "internalType": "address",
          "name": "account",
          "type": "address"
        }
      ],
      "name": "FarmerAdded",
      "type": "event"
    },
    {
      "anonymous": false,
      "inputs": [
        {
          "indexed": true,
          "internalType": "address",
          "name": "account",
          "type": "address"
        }
      ],
      "name": "FarmerRemoved",
      "type": "event"
    },
    {
      "anonymous": false,
      "inputs": [
        {
          "indexed": false,
          "internalType": "uint256",
          "name": "upc",
          "type": "uint256"
        }
      ],
      "name": "ForSale",
      "type": "event"
    },
    {
      "anonymous": false,
      "inputs": [
        {
          "indexed": false,
          "internalType": "uint256",
          "name": "upc",
          "type": "uint256"
        }
      ],
      "name": "Harvested",
      "type": "event"
    },
    {
      "anonymous": false,
      "inputs": [
        {
          "indexed": false,
          "internalType": "uint256",
          "name": "upc",
          "type": "uint256"
        },
        {
          "indexed": false,
          "internalType": "string",
          "name": "imageIpfsHash",
          "type": "string"
        }
      ],
      "name": "ImageUploaded",
      "type": "event"
    },
    {
      "anonymous": false,
      "inputs": [
        {
          "indexed": false,
          "internalType": "uint256",
          "name": "upc",
          "type": "uint256"
        }
      ],
      "name": "Packed",
      "type": "event"
    },
    {
      "anonymous": false,
      "inputs": [
        {
          "indexed": false,
          "internalType": "uint256",
          "name": "upc",
          "type": "uint256"
        }
      ],
      "name": "Processed",
      "type": "event"
    },
    {
      "anonymous": false,
      "inputs": [
        {
          "indexed": false,
          "internalType": "uint256",
          "name": "upc",
          "type": "uint256"
        }
      ],
      "name": "Purchased",
      "type": "event"
    },
    {
      "anonymous": false,
      "inputs": [
        {
          "indexed": false,
          "internalType": "uint256",
          "name": "upc",
          "type": "uint256"
        }
      ],
      "name": "Received",
      "type": "event"
    },
    {
      "anonymous": false,
      "inputs": [
        {
          "indexed": true,
          "internalType": "address",
          "name": "account",
          "type": "address"
        }
      ],
      "name": "RetailerAdded",
      "type": "event"
    },
    {
      "anonymous": false,
      "inputs": [
        {
          "indexed": true,
          "internalType": "address",
          "name": "account",
          "type": "address"
        }
      ],
      "name": "RetailerRemoved",
      "type": "event"
    },
    {
      "anonymous": false,
      "inputs": [
        {
          "indexed": false,
          "internalType": "uint256",
          "name": "upc",
          "type": "uint256"
        }
      ],
      "name": "Shipped",
      "type": "event"
    },
    {
      "anonymous": false,
      "inputs": [
        {
          "indexed": false,
          "internalType": "uint256",
          "name": "upc",
          "type": "uint256"
        }
      ],
      "name": "Sold",
      "type": "event"
    },
    {
      "anonymous": false,
      "inputs": [
        {
          "indexed": true,
          "internalType": "address",
          "name": "oldOwner",
          "type": "address"
        },
        {
          "indexed": true,
          "internalType": "address",
          "name": "newOwner",
          "type": "address"
        }
      ],
      "name": "TransferOwnership",
      "type": "event"
    },
    {
      "inputs": [
        {
          "internalType": "address",
          "name": "account",
          "type": "address"
        }
      ],
      "name": "addConsumer",
      "outputs": [],
      "stateMutability": "nonpayable",
      "type": "function"
    },
    {
      "inputs": [
        {
          "internalType": "address",
          "name": "account",
          "type": "address"
        }
      ],
      "name": "addDistributor",
      "outputs": [],
      "stateMutability": "nonpayable",
      "type": "function"
    },
    {
      "inputs": [
        {
          "internalType": "address",
          "name": "account",
          "type": "address"
        }
      ],
      "name": "addFarmer",
      "outputs": [],
      "stateMutability": "nonpayable",
      "type": "function"
    },
    {
      "inputs": [
        {
          "internalType": "address",
          "name": "account",
          "type": "address"
        }
      ],
      "name": "addRetailer",
      "outputs": [],
      "stateMutability": "nonpayable",
      "type": "function"
    },
    {
      "inputs": [
        {
          "internalType": "uint256",
          "name": "_upc",
          "type": "uint256"
        }
      ],
      "name": "buyItem",
      "outputs": [],
      "stateMutability": "payable",
      "type": "function",
      "payable": true
    },
    {
      "inputs": [
        {
          "internalType": "uint256",
          "name": "_upc",
          "type": "uint256"
        }
      ],
      "name": "fetchItemBufferOne",
      "outputs": [
        {
          "internalType": "uint256",
          "name": "itemSKU",
          "type": "uint256"
        },
        {
          "internalType": "uint256",
          "name": "itemUPC",
          "type": "uint256"
        },
        {
          "internalType": "address",
          "name": "ownerID",
          "type": "address"
        },
        {
          "internalType": "address",
          "name": "originFarmerID",
          "type": "address"
        },
        {
          "internalType": "string",
          "name": "originFarmName",
          "type": "string"
        },
        {
          "internalType": "string",
          "name": "originFarmInformation",
          "type": "string"
        },
        {
          "internalType": "string",
          "name": "originFarmLatitude",
          "type": "string"
        },
        {
          "internalType": "string",
          "name": "originFarmLongitude",
          "type": "string"
        }
      ],
      "stateMutability": "view",
      "type": "function",
      "constant": true
    },
    {
      "inputs": [
        {
          "internalType": "uint256",
          "name": "_upc",
          "type": "uint256"
        }
      ],
      "name": "fetchItemBufferTwo",
      "outputs": [
        {
          "internalType": "uint256",
          "name": "itemSKU",
          "type": "uint256"
        },
        {
          "internalType": "uint256",
          "name": "itemUPC",
          "type": "uint256"
        },
        {
          "internalType": "uint256",
          "name": "productID",
          "type": "uint256"
        },
        {
          "internalType": "string",
          "name": "productNotes",
          "type": "string"
        },
        {
          "internalType": "uint256",
          "name": "productPrice",
          "type": "uint256"
        },
        {
          "internalType": "uint256",
          "name": "itemState",
          "type": "uint256"
        },
        {
          "internalType": "address",
          "name": "distributorID",
          "type": "address"
        },
        {
          "internalType": "address",
          "name": "retailerID",
          "type": "address"
        },
        {
          "internalType": "address",
          "name": "consumerID",
          "type": "address"
        }
      ],
      "stateMutability": "view",
      "type": "function",
      "constant": true
    },
    {
      "inputs": [
        {
          "internalType": "uint256",
          "name": "_upc",
          "type": "uint256"
        },
        {
          "internalType": "address payable",
          "name": "_originFarmerID",
          "type": "address"
        },
        {
          "internalType": "string",
          "name": "_originFarmName",
          "type": "string"
        },
        {
          "internalType": "string",
          "name": "_originFarmInformation",
          "type": "string"
        },
        {
          "internalType": "string",
          "name": "_originFarmLatitude",
          "type": "string"
        },
        {
          "internalType": "string",
          "name": "_originFarmLongitude",
          "type": "string"
        },
        {
          "internalType": "string",
          "name": "_productNotes",
          "type": "string"
        }
      ],
      "name": "harvestItem",
      "outputs": [],
      "stateMutability": "nonpayable",
      "type": "function"
    },
    {
      "inputs": [
        {
          "internalType": "address",
          "name": "account",
          "type": "address"
        }
      ],
      "name": "isConsumer",
      "outputs": [
        {
          "internalType": "bool",
          "name": "",
          "type": "bool"
        }
      ],
      "stateMutability": "view",
      "type": "function",
      "constant": true
    },
    {
      "inputs": [
        {
          "internalType": "address",
          "name": "account",
          "type": "address"
        }
      ],
      "name": "isDistributor",
      "outputs": [
        {
          "internalType": "bool",
          "name": "",
          "type": "bool"
        }
      ],
      "stateMutability": "view",
      "type": "function",
      "constant": true
    },
    {
      "inputs": [
        {
          "internalType": "address",
          "name": "account",
          "type": "address"
        }
      ],
      "name": "isFarmer",
      "outputs": [
        {
          "internalType": "bool",
          "name": "",
          "type": "bool"
        }
      ],
      "stateMutability": "view",
      "type": "function",
      "constant": true
    },
    {
      "inputs": [
        {
          "internalType": "address",
          "name": "account",
          "type": "address"
        }
      ],
      "name": "isRetailer",
      "outputs": [
        {
          "internalType": "bool",
          "name": "",
          "type": "bool"
        }
      ],
      "stateMutability": "view",
      "type": "function",
      "constant": true
    },
    {
      "inputs": [],
      "name": "kill",
      "outputs": [],
      "stateMutability": "payable",
      "type": "function",
      "payable": true
    },
    {
      "inputs": [
        {
          "internalType": "uint256",
          "name": "_upc",
          "type": "uint256"
        }
      ],
      "name": "packItem",
      "outputs": [],
      "stateMutability": "nonpayable",
      "type": "function"
    },
    {
      "inputs": [
        {
          "internalType": "uint256",
          "name": "_upc",
          "type": "uint256"
        }
      ],
      "name": "processItem",
      "outputs": [],
      "stateMutability": "nonpayable",
      "type": "function"
    },
    {
      "inputs": [
        {
          "internalType": "uint256",
          "name": "_upc",
          "type": "uint256"
        }
      ],
      "name": "purchaseItem",
      "outputs": [],
      "stateMutability": "payable",
      "type": "function",
      "payable": true
    },
    {
      "inputs": [
        {
          "internalType": "uint256",
          "name": "_upc",
          "type": "uint256"
        }
      ],
      "name": "read",
      "outputs": [
        {
          "internalType": "string",
          "name": "",
          "type": "string"
        }
      ],
      "stateMutability": "view",
      "type": "function",
      "constant": true
    },
    {
      "inputs": [
        {
          "internalType": "uint256",
          "name": "_upc",
          "type": "uint256"
        }
      ],
      "name": "receiveItem",
      "outputs": [],
      "stateMutability": "nonpayable",
      "type": "function"
    },
    {
      "inputs": [],
      "name": "renounceConsumer",
      "outputs": [],
      "stateMutability": "nonpayable",
      "type": "function"
    },
    {
      "inputs": [],
      "name": "renounceDistributor",
      "outputs": [],
      "stateMutability": "nonpayable",
      "type": "function"
    },
    {
      "inputs": [],
      "name": "renounceFarmer",
      "outputs": [],
      "stateMutability": "nonpayable",
      "type": "function"
    },
    {
      "inputs": [],
      "name": "renounceRetailer",
      "outputs": [],
      "stateMutability": "nonpayable",
      "type": "function"
    },
    {
      "inputs": [
        {
          "internalType": "uint256",
          "name": "_upc",
          "type": "uint256"
        },
        {
          "internalType": "uint256",
          "name": "_price",
          "type": "uint256"
        }
      ],
      "name": "sellItem",
      "outputs": [],
      "stateMutability": "nonpayable",
      "type": "function"
    },
    {
      "inputs": [
        {
          "internalType": "uint256",
          "name": "_upc",
          "type": "uint256"
        }
      ],
      "name": "shipItem",
      "outputs": [],
      "stateMutability": "nonpayable",
      "type": "function"
    },
    {
      "inputs": [
        {
          "internalType": "uint256",
          "name": "_upc",
          "type": "uint256"
        },
        {
          "internalType": "string",
          "name": "_imageIpfsHash",
          "type": "string"
        }
      ],
      "name": "upload",
      "outputs": [],
      "stateMutability": "nonpayable",
      "type": "function"
    },
    {
      "inputs": [],
      "name": "contractOwner",
      "outputs": [
        {
          "internalType": "address",
          "name": "",
          "type": "address"
        }
      ],
      "stateMutability": "view",
      "type": "function",
      "constant": true
    },
    {
      "inputs": [],
      "name": "isOwner",
      "outputs": [
        {
          "internalType": "bool",
          "name": "",
          "type": "bool"
        }
      ],
      "stateMutability": "view",
      "type": "function",
      "constant": true
    },
    {
      "inputs": [],
      "name": "renounceOwnership",
      "outputs": [],
      "stateMutability": "nonpayable",
      "type": "function"
    },
    {
      "inputs": [
        {
          "internalType": "address",
          "name": "newOwner",
          "type": "address"
        }
      ],
      "name": "transferOwnership",
      "outputs": [],
      "stateMutability": "nonpayable",
      "type": "function"
    }
  ],
  "bytecode": "0x608060405262000015336200015960201b60201c565b6200002633620001b460201b60201c565b62000037336200021060201b60201c565b62000048336200026c60201b60201c565b3360045f6101000a81548173ffffffffffffffffffffffffffffffffffffffff021916908373ffffffffffffffffffffffffffffffffffffffff1602179055506001600681905550600160058190555033600a5f6101000a81548173ffffffffffffffffffffffffffffffffffffffff021916908373ffffffffffffffffffffffffffffffffffffffff160217905550600a5f9054906101000a900473ffffffffffffffffffffffffffffffffffffffff1673ffffffffffffffffffffffffffffffffffffffff165f73ffffffffffffffffffffffffffffffffffffffff167f5c486528ec3e3f0ea91181cff8116f02bfa350e03b8b6f12e00765adbb5af85c60405160405180910390a3620005e5565b6200016e815f620002c860201b90919060201c565b8073ffffffffffffffffffffffffffffffffffffffff167f2e0ded4123377a3c2bc9a26f1717655a129e2f20752924d42e730ec89c83dbd060405160405180910390a250565b620001ca816001620002c860201b90919060201c565b8073ffffffffffffffffffffffffffffffffffffffff167fddbf200aa634dc3fb81cfd68583dd1040d1c751d335e1d86b631bde3e977fea860405160405180910390a250565b62000226816002620002c860201b90919060201c565b8073ffffffffffffffffffffffffffffffffffffffff167f71ae26cad02663e3d92efd6ec56031a80d74a20c0ab4183faa8bf262261c9baa60405160405180910390a250565b62000282816003620002c860201b90919060201c565b8073ffffffffffffffffffffffffffffffffffffffff167f28b26e7a3d20aedbc5f8f2ebf7da671c0491723a2b78f47a097b0e46dee0714260405160405180910390a250565b5f73ffffffffffffffffffffffffffffffffffffffff168173ffffffffffffffffffffffffffffffffffffffff160362000339576040517f08c379a0000000000000000000000000000000000000000000000000000000008152600401620003309062000531565b60405180910390fd5b6200034b8282620003e860201b60201c565b156200038e576040517f08c379a00000000000000000000000000000000000000000000000000000000081526004016200038590620005c5565b60405180910390fd5b6001825f015f8373ffffffffffffffffffffffffffffffffffffffff1673ffffffffffffffffffffffffffffffffffffffff1681526020019081526020015f205f6101000a81548160ff0219169083151502179055505050565b5f8073ffffffffffffffffffffffffffffffffffffffff168273ffffffffffffffffffffffffffffffffffffffff16036200045a576040517f08c379a0000000000000000000000000000000000000000000000000000000008152600401620004519062000531565b60405180910390fd5b825f015f8373ffffffffffffffffffffffffffffffffffffffff1673ffffffffffffffffffffffffffffffffffffffff1681526020019081526020015f205f9054906101000a900460ff16905092915050565b5f82825260208201905092915050565b7f6163636f756e742063616e206e6f74206265207468652067656e6573697320615f8201527f63636f756e740000000000000000000000000000000000000000000000000000602082015250565b5f62000519602683620004ad565b91506200052682620004bd565b604082019050919050565b5f6020820190508181035f8301526200054a816200050b565b9050919050565b7f54686973206163636f756e742073686f756c64276e74206861766520616363655f8201527f737320696e697469616c6c790000000000000000000000000000000000000000602082015250565b5f620005ad602c83620004ad565b9150620005ba8262000551565b604082019050919050565b5f6020820190508181035f830152620005de816200059f565b9050919050565b61472080620005f35f395ff3fe6080604052600436106101c1575f3560e01c8063834ff739116100f6578063ce606ee011610094578063ed2e5a9711610063578063ed2e5a97146105a8578063f2fde38b146105e4578063f30fc4801461060c578063f61c899a14610634576101c1565b8063ce606ee014610530578063d38ea5bf1461055a578063db0e6a2f14610576578063e7fb74c71461058c576101c1565b80638f32d59b116100d05780638f32d59b1461047a578063a26be999146104a4578063b9429069146104cc578063bdd8a6a814610508576101c1565b8063834ff739146103da5780638ec4f505146104165780638f0c86fa1461043e576101c1565b8063644241db116101635780637250e2241161013d5780637250e2241461033157806377c459131461035957806380c3f96d1461039c57806380fc0ce4146103c4576101c1565b8063644241db146102c157806366225ff9146102d7578063715018a61461031b576101c1565b806349dae7661161019f57806349dae7661461021f5780634d725e95146102475780635da09b881461026f57806361e6982d146102ab576101c1565b8063112940f9146101c55780632d923561146101ed57806341c0e1b514610215575b5f80fd5b3480156101d0575f80fd5b506101eb60048036038101906101e69190613479565b61065c565b005b3480156101f8575f80fd5b50610213600480360381019061020e91906134d7565b6106b0565b005b61021d610881565b005b34801561022a575f80fd5b5061024560048036038101906102409190613515565b61094d565b005b348015610252575f80fd5b5061026d6004803603810190610268919061367c565b610b03565b005b34801561027a575f80fd5b5061029560048036038101906102909190613479565b610ca6565b6040516102a291906136f0565b60405180910390f35b3480156102b6575f80fd5b506102bf610cc2565b005b3480156102cc575f80fd5b506102d5610ccd565b005b3480156102e2575f80fd5b506102fd60048036038101906102f89190613515565b610cd8565b604051610312999897969594939291906137a1565b60405180910390f35b348015610326575f80fd5b5061032f611242565b005b34801561033c575f80fd5b5061035760048036038101906103529190613479565b61130f565b005b348015610364575f80fd5b5061037f600480360381019061037a9190613515565b611363565b604051610393989796959493929190613833565b60405180910390f35b3480156103a7575f80fd5b506103c260048036038101906103bd9190613479565b6118ab565b005b3480156103cf575f80fd5b506103d86118ff565b005b3480156103e5575f80fd5b5061040060048036038101906103fb9190613479565b61190a565b60405161040d91906136f0565b60405180910390f35b348015610421575f80fd5b5061043c60048036038101906104379190613479565b611926565b005b348015610449575f80fd5b50610464600480360381019061045f9190613479565b61197a565b60405161047191906136f0565b60405180910390f35b348015610485575f80fd5b5061048e611996565b60405161049b91906136f0565b60405180910390f35b3480156104af575f80fd5b506104ca60048036038101906104c59190613515565b6119ec565b005b3480156104d7575f80fd5b506104f260048036038101906104ed9190613479565b611bd7565b6040516104ff91906136f0565b60405180910390f35b348015610513575f80fd5b5061052e60048036038101906105299190613906565b611bf2565b005b34801561053b575f80fd5b50610544611fc4565b6040516105519190613a2f565b60405180910390f35b610574600480360381019061056f9190613515565b611fec565b005b348015610581575f80fd5b5061058a61248c565b005b6105a660048036038101906105a19190613515565b612497565b005b3480156105b3575f80fd5b506105ce60048036038101906105c99190613515565b612939565b6040516105db9190613a48565b60405180910390f35b3480156105ef575f80fd5b5061060a60048036038101906106059190613479565b6129dd565b005b348015610617575f80fd5b50610632600480360381019061062d9190613515565b6129f9565b005b34801561063f575f80fd5b5061065a60048036038101906106559190613515565b612bb0565b005b6106653361190a565b6106a4576040517f08c379a000000000000000000000000000000000000000000000000000000000815260040161069b90613ab2565b60405180910390fd5b6106ad81612d67565b50565b81600260078111156106c5576106c4613ad0565b5b60075f8381526020019081526020015f20600b015f9054906101000a900460ff1660078111156106f8576106f7613ad0565b5b14610738576040517f08c379a000000000000000000000000000000000000000000000000000000000815260040161072f90613b47565b60405180910390fd5b338073ffffffffffffffffffffffffffffffffffffffff163373ffffffffffffffffffffffffffffffffffffffff16146107a7576040517f08c379a000000000000000000000000000000000000000000000000000000000815260040161079e90613bd5565b60405180910390fd5b6107b033611bd7565b6107ef576040517f08c379a00000000000000000000000000000000000000000000000000000000081526004016107e690613c3d565b60405180910390fd5b600360075f8681526020019081526020015f20600b015f6101000a81548160ff0219169083600781111561082657610825613ad0565b5b02179055508260075f8681526020019081526020015f20600a01819055507fa96ae0fc3224ebd79eebfe54bd130cc9cb94416cddd1f2386115e00b72532468846040516108739190613c5b565b60405180910390a150505050565b610889611996565b610891575f80fd5b60045f9054906101000a900473ffffffffffffffffffffffffffffffffffffffff1673ffffffffffffffffffffffffffffffffffffffff163373ffffffffffffffffffffffffffffffffffffffff160361094b5760045f9054906101000a900473ffffffffffffffffffffffffffffffffffffffff1673ffffffffffffffffffffffffffffffffffffffff166108fc4790811502906040515f60405180830381858888f19350505050158015610949573d5f803e3d5ffd5b505b565b805f600781111561096157610960613ad0565b5b60075f8381526020019081526020015f20600b015f9054906101000a900460ff16600781111561099457610993613ad0565b5b146109d4576040517f08c379a00000000000000000000000000000000000000000000000000000000081526004016109cb90613cbe565b60405180910390fd5b338073ffffffffffffffffffffffffffffffffffffffff163373ffffffffffffffffffffffffffffffffffffffff1614610a43576040517f08c379a0000000000000000000000000000000000000000000000000000000008152600401610a3a90613bd5565b60405180910390fd5b610a4c33611bd7565b610a8b576040517f08c379a0000000000000000000000000000000000000000000000000000000008152600401610a8290613c3d565b60405180910390fd5b600160075f8581526020019081526020015f20600b015f6101000a81548160ff02191690836007811115610ac257610ac1613ad0565b5b02179055507f5afe3b1bf87069693c075da5c22a98d63d1aef98a30dbbe538d0781a98b77ee583604051610af69190613c5b565b60405180910390a1505050565b610b0c33611bd7565b610b4b576040517f08c379a0000000000000000000000000000000000000000000000000000000008152600401610b4290613c3d565b60405180910390fd5b338073ffffffffffffffffffffffffffffffffffffffff163373ffffffffffffffffffffffffffffffffffffffff1614610bba576040517f08c379a0000000000000000000000000000000000000000000000000000000008152600401610bb190613bd5565b60405180910390fd5b5f60095f8581526020019081526020015f206001018054610bda90613d09565b905014610c1c576040517f08c379a0000000000000000000000000000000000000000000000000000000008152600401610c1390613da9565b60405180910390fd5b5f60405180604001604052808581526020018481525090508060095f8681526020019081526020015f205f820151815f01556020820151816001019081610c639190613f64565b509050507f72efb2e6cb55af9fcd81678e0730b9d670e9a0f627ff0ff986cf5171b12565c78484604051610c98929190614033565b60405180910390a150505050565b5f610cbb826002612dc190919063ffffffff16565b9050919050565b610ccb33612e83565b565b610cd633612edd565b565b5f805f60605f805f805f8060075f8c81526020019081526020015f20604051806101e00160405290815f820154815260200160018201548152602001600282015f9054906101000a900473ffffffffffffffffffffffffffffffffffffffff1673ffffffffffffffffffffffffffffffffffffffff1673ffffffffffffffffffffffffffffffffffffffff168152602001600382015f9054906101000a900473ffffffffffffffffffffffffffffffffffffffff1673ffffffffffffffffffffffffffffffffffffffff1673ffffffffffffffffffffffffffffffffffffffff168152602001600482018054610dcd90613d09565b80601f0160208091040260200160405190810160405280929190818152602001828054610df990613d09565b8015610e445780601f10610e1b57610100808354040283529160200191610e44565b820191905f5260205f20905b815481529060010190602001808311610e2757829003601f168201915b50505050508152602001600582018054610e5d90613d09565b80601f0160208091040260200160405190810160405280929190818152602001828054610e8990613d09565b8015610ed45780601f10610eab57610100808354040283529160200191610ed4565b820191905f5260205f20905b815481529060010190602001808311610eb757829003601f168201915b50505050508152602001600682018054610eed90613d09565b80601f0160208091040260200160405190810160405280929190818152602001828054610f1990613d09565b8015610f645780601f10610f3b57610100808354040283529160200191610f64565b820191905f5260205f20905b815481529060010190602001808311610f4757829003601f168201915b50505050508152602001600782018054610f7d90613d09565b80601f0160208091040260200160405190810160405280929190818152602001828054610fa990613d09565b8015610ff45780601f10610fcb57610100808354040283529160200191610ff4565b820191905f5260205f20905b815481529060010190602001808311610fd757829003601f168201915b505050505081526020016008820154815260200160098201805461101790613d09565b80601f016020809104026020016040519081016040528092919081815260200182805461104390613d09565b801561108e5780601f106110655761010080835404028352916020019161108e565b820191905f5260205f20905b81548152906001019060200180831161107157829003601f168201915b50505050508152602001600a8201548152602001600b82015f9054906101000a900460ff1660078111156110c5576110c4613ad0565b5b60078111156110d7576110d6613ad0565b5b8152602001600b820160019054906101000a900473ffffffffffffffffffffffffffffffffffffffff1673ffffffffffffffffffffffffffffffffffffffff1673ffffffffffffffffffffffffffffffffffffffff168152602001600c82015f9054906101000a900473ffffffffffffffffffffffffffffffffffffffff1673ffffffffffffffffffffffffffffffffffffffff1673ffffffffffffffffffffffffffffffffffffffff168152602001600d82015f9054906101000a900473ffffffffffffffffffffffffffffffffffffffff1673ffffffffffffffffffffffffffffffffffffffff1673ffffffffffffffffffffffffffffffffffffffff16815250509050805f0151816020015182610100015183610120015184610140015185610160015160078111156112105761120f613ad0565b5b866101800151876101a00151886101c00151995099509950995099509950995099509950509193959799909294969850565b61124a611996565b611252575f80fd5b5f73ffffffffffffffffffffffffffffffffffffffff16600a5f9054906101000a900473ffffffffffffffffffffffffffffffffffffffff1673ffffffffffffffffffffffffffffffffffffffff167f5c486528ec3e3f0ea91181cff8116f02bfa350e03b8b6f12e00765adbb5af85c60405160405180910390a35f600a5f6101000a81548173ffffffffffffffffffffffffffffffffffffffff021916908373ffffffffffffffffffffffffffffffffffffffff160217905550565b6113183361197a565b611357576040517f08c379a000000000000000000000000000000000000000000000000000000000815260040161134e906140ab565b60405180910390fd5b61136081612f37565b50565b5f805f806060806060805f60075f8b81526020019081526020015f20604051806101e00160405290815f820154815260200160018201548152602001600282015f9054906101000a900473ffffffffffffffffffffffffffffffffffffffff1673ffffffffffffffffffffffffffffffffffffffff1673ffffffffffffffffffffffffffffffffffffffff168152602001600382015f9054906101000a900473ffffffffffffffffffffffffffffffffffffffff1673ffffffffffffffffffffffffffffffffffffffff1673ffffffffffffffffffffffffffffffffffffffff16815260200160048201805461145890613d09565b80601f016020809104026020016040519081016040528092919081815260200182805461148490613d09565b80156114cf5780601f106114a6576101008083540402835291602001916114cf565b820191905f5260205f20905b8154815290600101906020018083116114b257829003601f168201915b505050505081526020016005820180546114e890613d09565b80601f016020809104026020016040519081016040528092919081815260200182805461151490613d09565b801561155f5780601f106115365761010080835404028352916020019161155f565b820191905f5260205f20905b81548152906001019060200180831161154257829003601f168201915b5050505050815260200160068201805461157890613d09565b80601f01602080910402602001604051908101604052809291908181526020018280546115a490613d09565b80156115ef5780601f106115c6576101008083540402835291602001916115ef565b820191905f5260205f20905b8154815290600101906020018083116115d257829003601f168201915b5050505050815260200160078201805461160890613d09565b80601f016020809104026020016040519081016040528092919081815260200182805461163490613d09565b801561167f5780601f106116565761010080835404028352916020019161167f565b820191905f5260205f20905b81548152906001019060200180831161166257829003601f168201915b50505050508152602001600882015481526020016009820180546116a290613d09565b80601f01602080910402602001604051908101604052809291908181526020018280546116ce90613d09565b80156117195780601f106116f057610100808354040283529160200191611719565b820191905f5260205f20905b8154815290600101906020018083116116fc57829003601f168201915b50505050508152602001600a8201548152602001600b82015f9054906101000a900460ff1660078111156117505761174f613ad0565b5b600781111561176257611761613ad0565b5b8152602001600b820160019054906101000a900473ffffffffffffffffffffffffffffffffffffffff1673ffffffffffffffffffffffffffffffffffffffff1673ffffffffffffffffffffffffffffffffffffffff168152602001600c82015f9054906101000a900473ffffffffffffffffffffffffffffffffffffffff1673ffffffffffffffffffffffffffffffffffffffff1673ffffffffffffffffffffffffffffffffffffffff168152602001600d82015f9054906101000a900473ffffffffffffffffffffffffffffffffffffffff1673ffffffffffffffffffffffffffffffffffffffff1673ffffffffffffffffffffffffffffffffffffffff16815250509050805f015181602001518260400151836060015184608001518560a001518660c001518760e001519850985098509850985098509850985050919395975091939597565b6118b433611bd7565b6118f3576040517f08c379a00000000000000000000000000000000000000000000000000000000081526004016118ea90613c3d565b60405180910390fd5b6118fc81612f91565b50565b61190833612fea565b565b5f61191f826003612dc190919063ffffffff16565b9050919050565b61192f33610ca6565b61196e576040517f08c379a000000000000000000000000000000000000000000000000000000000815260040161196590614113565b60405180910390fd5b61197781613043565b50565b5f61198f826001612dc190919063ffffffff16565b9050919050565b5f600a5f9054906101000a900473ffffffffffffffffffffffffffffffffffffffff1673ffffffffffffffffffffffffffffffffffffffff163373ffffffffffffffffffffffffffffffffffffffff1614905090565b8060056007811115611a0157611a00613ad0565b5b60075f8381526020019081526020015f20600b015f9054906101000a900460ff166007811115611a3457611a33613ad0565b5b14611a74576040517f08c379a0000000000000000000000000000000000000000000000000000000008152600401611a6b9061417b565b60405180910390fd5b611a7d33610ca6565b611abc576040517f08c379a0000000000000000000000000000000000000000000000000000000008152600401611ab390614113565b60405180910390fd5b3360075f8481526020019081526020015f206002015f6101000a81548173ffffffffffffffffffffffffffffffffffffffff021916908373ffffffffffffffffffffffffffffffffffffffff1602179055503360075f8481526020019081526020015f20600c015f6101000a81548173ffffffffffffffffffffffffffffffffffffffff021916908373ffffffffffffffffffffffffffffffffffffffff160217905550600660075f8481526020019081526020015f20600b015f6101000a81548160ff02191690836007811115611b9757611b96613ad0565b5b02179055507fa8142743f8f70a4c26f3691cf4ed59718381fb2f18070ec52be1f1022d85555782604051611bcb9190613c5b565b60405180910390a15050565b5f611beb825f612dc190919063ffffffff16565b9050919050565b611bfb33611bd7565b611c3a576040517f08c379a0000000000000000000000000000000000000000000000000000000008152600401611c3190613c3d565b60405180910390fd5b6001600654611c4991906141c6565b6006819055505f604051806101e0016040528060065481526020018981526020015f73ffffffffffffffffffffffffffffffffffffffff1681526020018873ffffffffffffffffffffffffffffffffffffffff1681526020018781526020018681526020018581526020018481526020016006548a611cc891906141c6565b81526020018381526020015f81526020015f6007811115611cec57611ceb613ad0565b5b81526020015f73ffffffffffffffffffffffffffffffffffffffff1681526020015f73ffffffffffffffffffffffffffffffffffffffff1681526020015f73ffffffffffffffffffffffffffffffffffffffff1681525090507f8e55ccfc9778ff8eba1646d765cf1982537ce0f9257054a17b48aad74525018388604051611d749190613c5b565b60405180910390a18060075f8a81526020019081526020015f205f820151815f0155602082015181600101556040820151816002015f6101000a81548173ffffffffffffffffffffffffffffffffffffffff021916908373ffffffffffffffffffffffffffffffffffffffff1602179055506060820151816003015f6101000a81548173ffffffffffffffffffffffffffffffffffffffff021916908373ffffffffffffffffffffffffffffffffffffffff1602179055506080820151816004019081611e419190613f64565b5060a0820151816005019081611e579190613f64565b5060c0820151816006019081611e6d9190613f64565b5060e0820151816007019081611e839190613f64565b506101008201518160080155610120820151816009019081611ea59190613f64565b5061014082015181600a015561016082015181600b015f6101000a81548160ff02191690836007811115611edc57611edb613ad0565b5b021790555061018082015181600b0160016101000a81548173ffffffffffffffffffffffffffffffffffffffff021916908373ffffffffffffffffffffffffffffffffffffffff1602179055506101a082015181600c015f6101000a81548173ffffffffffffffffffffffffffffffffffffffff021916908373ffffffffffffffffffffffffffffffffffffffff1602179055506101c082015181600d015f6101000a81548173ffffffffffffffffffffffffffffffffffffffff021916908373ffffffffffffffffffffffffffffffffffffffff1602179055509050505050505050505050565b5f600a5f9054906101000a900473ffffffffffffffffffffffffffffffffffffffff16905090565b806006600781111561200157612000613ad0565b5b60075f8381526020019081526020015f20600b015f9054906101000a900460ff16600781111561203457612033613ad0565b5b14612074576040517f08c379a000000000000000000000000000000000000000000000000000000000815260040161206b90614243565b60405180910390fd5b34803410156120b8576040517f08c379a00000000000000000000000000000000000000000000000000000000081526004016120af906142ab565b60405180910390fd5b6120c13361190a565b612100576040517f08c379a00000000000000000000000000000000000000000000000000000000081526004016120f790613ab2565b60405180910390fd5b826040518060400160405280600c81526020017f70757263686173654974656d00000000000000000000000000000000000000008152503360075f8781526020019081526020015f206002015f6101000a81548173ffffffffffffffffffffffffffffffffffffffff021916908373ffffffffffffffffffffffffffffffffffffffff1602179055503360075f8781526020019081526020015f20600d015f6101000a81548173ffffffffffffffffffffffffffffffffffffffff021916908373ffffffffffffffffffffffffffffffffffffffff1602179055506007805f8781526020019081526020015f20600b015f6101000a81548160ff0219169083600781111561221157612210613ad0565b5b021790555060075f8681526020019081526020015f20600c015f9054906101000a900473ffffffffffffffffffffffffffffffffffffffff1673ffffffffffffffffffffffffffffffffffffffff166108fc3490811502906040515f60405180830381858888f1935050505015801561228c573d5f803e3d5ffd5b507f653d56639fee6b566a5c804764e9689de38645f0b733df89a36a1b7b42173dd8856040516122bc9190613c5b565b60405180910390a15f60075f8481526020019081526020015f20600a015490505f81346122e991906142c9565b90506040516020016122fa90614350565b60405160208183030381529060405280519060200120836040516020016123219190614394565b60405160208183030381529060405280519060200120036123b95760075f8581526020019081526020015f20600b0160019054906101000a900473ffffffffffffffffffffffffffffffffffffffff1673ffffffffffffffffffffffffffffffffffffffff166108fc8290811502906040515f60405180830381858888f193505050501580156123b3573d5f803e3d5ffd5b50612483565b6040516020016123c8906143f4565b60405160208183030381529060405280519060200120836040516020016123ef9190614394565b60405160208183030381529060405280519060200120036124825760075f8581526020019081526020015f20600d015f9054906101000a900473ffffffffffffffffffffffffffffffffffffffff1673ffffffffffffffffffffffffffffffffffffffff166108fc8290811502906040515f60405180830381858888f19350505050158015612480573d5f803e3d5ffd5b505b5b50505050505050565b6124953361309d565b565b80600360078111156124ac576124ab613ad0565b5b60075f8381526020019081526020015f20600b015f9054906101000a900460ff1660078111156124df576124de613ad0565b5b1461251f576040517f08c379a000000000000000000000000000000000000000000000000000000000815260040161251690614452565b60405180910390fd5b3480341015612563576040517f08c379a000000000000000000000000000000000000000000000000000000000815260040161255a906142ab565b60405180910390fd5b826040518060400160405280600781526020017f6275794974656d000000000000000000000000000000000000000000000000008152506125a33361197a565b6125e2576040517f08c379a00000000000000000000000000000000000000000000000000000000081526004016125d9906140ab565b60405180910390fd5b3360075f8781526020019081526020015f206002015f6101000a81548173ffffffffffffffffffffffffffffffffffffffff021916908373ffffffffffffffffffffffffffffffffffffffff1602179055503360075f8781526020019081526020015f20600b0160016101000a81548173ffffffffffffffffffffffffffffffffffffffff021916908373ffffffffffffffffffffffffffffffffffffffff160217905550600460075f8781526020019081526020015f20600b015f6101000a81548160ff021916908360078111156126be576126bd613ad0565b5b021790555060075f8681526020019081526020015f206003015f9054906101000a900473ffffffffffffffffffffffffffffffffffffffff1673ffffffffffffffffffffffffffffffffffffffff166108fc3490811502906040515f60405180830381858888f19350505050158015612739573d5f803e3d5ffd5b507f92f64ca637d023f354075a4be751b169c1a8a9ccb6d33cdd0cb3520543995727856040516127699190613c5b565b60405180910390a15f60075f8481526020019081526020015f20600a015490505f813461279691906142c9565b90506040516020016127a790614350565b60405160208183030381529060405280519060200120836040516020016127ce9190614394565b60405160208183030381529060405280519060200120036128665760075f8581526020019081526020015f20600b0160019054906101000a900473ffffffffffffffffffffffffffffffffffffffff1673ffffffffffffffffffffffffffffffffffffffff166108fc8290811502906040515f60405180830381858888f19350505050158015612860573d5f803e3d5ffd5b50612930565b604051602001612875906143f4565b604051602081830303815290604052805190602001208360405160200161289c9190614394565b604051602081830303815290604052805190602001200361292f5760075f8581526020019081526020015f20600d015f9054906101000a900473ffffffffffffffffffffffffffffffffffffffff1673ffffffffffffffffffffffffffffffffffffffff166108fc8290811502906040515f60405180830381858888f1935050505015801561292d573d5f803e3d5ffd5b505b5b50505050505050565b606060095f8381526020019081526020015f20600101805461295a90613d09565b80601f016020809104026020016040519081016040528092919081815260200182805461298690613d09565b80156129d15780601f106129a8576101008083540402835291602001916129d1565b820191905f5260205f20905b8154815290600101906020018083116129b457829003601f168201915b50505050509050919050565b6129e5611996565b6129ed575f80fd5b6129f6816130f7565b50565b8060016007811115612a0e57612a0d613ad0565b5b60075f8381526020019081526020015f20600b015f9054906101000a900460ff166007811115612a4157612a40613ad0565b5b14612a81576040517f08c379a0000000000000000000000000000000000000000000000000000000008152600401612a78906144ba565b60405180910390fd5b338073ffffffffffffffffffffffffffffffffffffffff163373ffffffffffffffffffffffffffffffffffffffff1614612af0576040517f08c379a0000000000000000000000000000000000000000000000000000000008152600401612ae790613bd5565b60405180910390fd5b612af933611bd7565b612b38576040517f08c379a0000000000000000000000000000000000000000000000000000000008152600401612b2f90613c3d565b60405180910390fd5b600260075f8581526020019081526020015f20600b015f6101000a81548160ff02191690836007811115612b6f57612b6e613ad0565b5b02179055507f9b3b66e2380b690bae22c73ef1428fb0c91e72fe14a4b6defa13035214187aff83604051612ba39190613c5b565b60405180910390a1505050565b8060046007811115612bc557612bc4613ad0565b5b60075f8381526020019081526020015f20600b015f9054906101000a900460ff166007811115612bf857612bf7613ad0565b5b14612c38576040517f08c379a0000000000000000000000000000000000000000000000000000000008152600401612c2f90614522565b60405180910390fd5b338073ffffffffffffffffffffffffffffffffffffffff163373ffffffffffffffffffffffffffffffffffffffff1614612ca7576040517f08c379a0000000000000000000000000000000000000000000000000000000008152600401612c9e90613bd5565b60405180910390fd5b612cb03361197a565b612cef576040517f08c379a0000000000000000000000000000000000000000000000000000000008152600401612ce6906140ab565b60405180910390fd5b600560075f8581526020019081526020015f20600b015f6101000a81548160ff02191690836007811115612d2657612d25613ad0565b5b02179055507ff00b9a5725b80c54016f42114f6ed7792d22eecb116011c4afac29c57bef6c9583604051612d5a9190613c5b565b60405180910390a1505050565b612d7b8160036131ec90919063ffffffff16565b8073ffffffffffffffffffffffffffffffffffffffff167f28b26e7a3d20aedbc5f8f2ebf7da671c0491723a2b78f47a097b0e46dee0714260405160405180910390a250565b5f8073ffffffffffffffffffffffffffffffffffffffff168273ffffffffffffffffffffffffffffffffffffffff1603612e30576040517f08c379a0000000000000000000000000000000000000000000000000000000008152600401612e27906145b0565b60405180910390fd5b825f015f8373ffffffffffffffffffffffffffffffffffffffff1673ffffffffffffffffffffffffffffffffffffffff1681526020019081526020015f205f9054906101000a900460ff16905092915050565b612e978160036132fe90919063ffffffff16565b8073ffffffffffffffffffffffffffffffffffffffff167fe3f5ed5f263f1f01764a96edfc7d025f511ec5f7d180e8816908b78bcf74f09860405160405180910390a250565b612ef18160016132fe90919063ffffffff16565b8073ffffffffffffffffffffffffffffffffffffffff167f126174f6cf49c81cdb4a9214c6b8f037bef55b4ec31e4fc776cea2a1c8a88d5960405160405180910390a250565b612f4b8160016131ec90919063ffffffff16565b8073ffffffffffffffffffffffffffffffffffffffff167fddbf200aa634dc3fb81cfd68583dd1040d1c751d335e1d86b631bde3e977fea860405160405180910390a250565b612fa4815f6131ec90919063ffffffff16565b8073ffffffffffffffffffffffffffffffffffffffff167f2e0ded4123377a3c2bc9a26f1717655a129e2f20752924d42e730ec89c83dbd060405160405180910390a250565b612ffd815f6132fe90919063ffffffff16565b8073ffffffffffffffffffffffffffffffffffffffff167fa5e0f060af304ab17dd418c7927e3da3ae7868189bf387aee09ab179ccc572f260405160405180910390a250565b6130578160026131ec90919063ffffffff16565b8073ffffffffffffffffffffffffffffffffffffffff167f71ae26cad02663e3d92efd6ec56031a80d74a20c0ab4183faa8bf262261c9baa60405160405180910390a250565b6130b18160026132fe90919063ffffffff16565b8073ffffffffffffffffffffffffffffffffffffffff167fdb7176e79cffef81cb01767dd0447a0b24bb72ca9778d4b245581086b2a7e6db60405160405180910390a250565b5f73ffffffffffffffffffffffffffffffffffffffff168173ffffffffffffffffffffffffffffffffffffffff160361312e575f80fd5b8073ffffffffffffffffffffffffffffffffffffffff16600a5f9054906101000a900473ffffffffffffffffffffffffffffffffffffffff1673ffffffffffffffffffffffffffffffffffffffff167f5c486528ec3e3f0ea91181cff8116f02bfa350e03b8b6f12e00765adbb5af85c60405160405180910390a380600a5f6101000a81548173ffffffffffffffffffffffffffffffffffffffff021916908373ffffffffffffffffffffffffffffffffffffffff16021790555050565b5f73ffffffffffffffffffffffffffffffffffffffff168173ffffffffffffffffffffffffffffffffffffffff160361325a576040517f08c379a0000000000000000000000000000000000000000000000000000000008152600401613251906145b0565b60405180910390fd5b6132648282612dc1565b156132a4576040517f08c379a000000000000000000000000000000000000000000000000000000000815260040161329b9061463e565b60405180910390fd5b6001825f015f8373ffffffffffffffffffffffffffffffffffffffff1673ffffffffffffffffffffffffffffffffffffffff1681526020019081526020015f205f6101000a81548160ff0219169083151502179055505050565b5f73ffffffffffffffffffffffffffffffffffffffff168173ffffffffffffffffffffffffffffffffffffffff160361336c576040517f08c379a0000000000000000000000000000000000000000000000000000000008152600401613363906145b0565b60405180910390fd5b6133768282612dc1565b6133b5576040517f08c379a00000000000000000000000000000000000000000000000000000000081526004016133ac906146cc565b60405180910390fd5b5f825f015f8373ffffffffffffffffffffffffffffffffffffffff1673ffffffffffffffffffffffffffffffffffffffff1681526020019081526020015f205f6101000a81548160ff0219169083151502179055505050565b5f604051905090565b5f80fd5b5f80fd5b5f73ffffffffffffffffffffffffffffffffffffffff82169050919050565b5f6134488261341f565b9050919050565b6134588161343e565b8114613462575f80fd5b50565b5f813590506134738161344f565b92915050565b5f6020828403121561348e5761348d613417565b5b5f61349b84828501613465565b91505092915050565b5f819050919050565b6134b6816134a4565b81146134c0575f80fd5b50565b5f813590506134d1816134ad565b92915050565b5f80604083850312156134ed576134ec613417565b5b5f6134fa858286016134c3565b925050602061350b858286016134c3565b9150509250929050565b5f6020828403121561352a57613529613417565b5b5f613537848285016134c3565b91505092915050565b5f80fd5b5f80fd5b5f601f19601f8301169050919050565b7f4e487b71000000000000000000000000000000000000000000000000000000005f52604160045260245ffd5b61358e82613548565b810181811067ffffffffffffffff821117156135ad576135ac613558565b5b80604052505050565b5f6135bf61340e565b90506135cb8282613585565b919050565b5f67ffffffffffffffff8211156135ea576135e9613558565b5b6135f382613548565b9050602081019050919050565b828183375f83830152505050565b5f61362061361b846135d0565b6135b6565b90508281526020810184848401111561363c5761363b613544565b5b613647848285613600565b509392505050565b5f82601f83011261366357613662613540565b5b813561367384826020860161360e565b91505092915050565b5f806040838503121561369257613691613417565b5b5f61369f858286016134c3565b925050602083013567ffffffffffffffff8111156136c0576136bf61341b565b5b6136cc8582860161364f565b9150509250929050565b5f8115159050919050565b6136ea816136d6565b82525050565b5f6020820190506137035f8301846136e1565b92915050565b613712816134a4565b82525050565b5f81519050919050565b5f82825260208201905092915050565b5f5b8381101561374f578082015181840152602081019050613734565b5f8484015250505050565b5f61376482613718565b61376e8185613722565b935061377e818560208601613732565b61378781613548565b840191505092915050565b61379b8161343e565b82525050565b5f610120820190506137b55f83018c613709565b6137c2602083018b613709565b6137cf604083018a613709565b81810360608301526137e1818961375a565b90506137f06080830188613709565b6137fd60a0830187613709565b61380a60c0830186613792565b61381760e0830185613792565b613825610100830184613792565b9a9950505050505050505050565b5f610100820190506138475f83018b613709565b613854602083018a613709565b6138616040830189613792565b61386e6060830188613792565b8181036080830152613880818761375a565b905081810360a0830152613894818661375a565b905081810360c08301526138a8818561375a565b905081810360e08301526138bc818461375a565b90509998505050505050505050565b5f6138d58261341f565b9050919050565b6138e5816138cb565b81146138ef575f80fd5b50565b5f81359050613900816138dc565b92915050565b5f805f805f805f60e0888a03121561392157613920613417565b5b5f61392e8a828b016134c3565b975050602061393f8a828b016138f2565b965050604088013567ffffffffffffffff8111156139605761395f61341b565b5b61396c8a828b0161364f565b955050606088013567ffffffffffffffff81111561398d5761398c61341b565b5b6139998a828b0161364f565b945050608088013567ffffffffffffffff8111156139ba576139b961341b565b5b6139c68a828b0161364f565b93505060a088013567ffffffffffffffff8111156139e7576139e661341b565b5b6139f38a828b0161364f565b92505060c088013567ffffffffffffffff811115613a1457613a1361341b565b5b613a208a828b0161364f565b91505092959891949750929550565b5f602082019050613a425f830184613792565b92915050565b5f6020820190508181035f830152613a60818461375a565b905092915050565b7f4f6e6c7920436f6e73756d6572732063616e20616c6c207468697300000000005f82015250565b5f613a9c601b83613722565b9150613aa782613a68565b602082019050919050565b5f6020820190508181035f830152613ac981613a90565b9050919050565b7f4e487b71000000000000000000000000000000000000000000000000000000005f52602160045260245ffd5b7f4974656d2068617320746f206265207061636b656400000000000000000000005f82015250565b5f613b31601583613722565b9150613b3c82613afd565b602082019050919050565b5f6020820190508181035f830152613b5e81613b25565b9050919050565b7f796f7520617265206e6f7420616c6c6f77656420746f20706572666f726d20745f8201527f686973206f7065726174696f6e00000000000000000000000000000000000000602082015250565b5f613bbf602d83613722565b9150613bca82613b65565b604082019050919050565b5f6020820190508181035f830152613bec81613bb3565b9050919050565b7f4f6e6c79204661726d6572732063616e20616c6c2074686973000000000000005f82015250565b5f613c27601983613722565b9150613c3282613bf3565b602082019050919050565b5f6020820190508181035f830152613c5481613c1b565b9050919050565b5f602082019050613c6e5f830184613709565b92915050565b7f4974656d2068617320746f2062652068617276657374656400000000000000005f82015250565b5f613ca8601883613722565b9150613cb382613c74565b602082019050919050565b5f6020820190508181035f830152613cd581613c9c565b9050919050565b7f4e487b71000000000000000000000000000000000000000000000000000000005f52602260045260245ffd5b5f6002820490506001821680613d2057607f821691505b602082108103613d3357613d32613cdc565b5b50919050565b7f49706673206861736820616c72656164792075706c6f6164656420666f7220745f8201527f6869732075706300000000000000000000000000000000000000000000000000602082015250565b5f613d93602783613722565b9150613d9e82613d39565b604082019050919050565b5f6020820190508181035f830152613dc081613d87565b9050919050565b5f819050815f5260205f209050919050565b5f6020601f8301049050919050565b5f82821b905092915050565b5f60088302613e237fffffffffffffffffffffffffffffffffffffffffffffffffffffffffffffffff82613de8565b613e2d8683613de8565b95508019841693508086168417925050509392505050565b5f819050919050565b5f613e68613e63613e5e846134a4565b613e45565b6134a4565b9050919050565b5f819050919050565b613e8183613e4e565b613e95613e8d82613e6f565b848454613df4565b825550505050565b5f90565b613ea9613e9d565b613eb4818484613e78565b505050565b5b81811015613ed757613ecc5f82613ea1565b600181019050613eba565b5050565b601f821115613f1c57613eed81613dc7565b613ef684613dd9565b81016020851015613f05578190505b613f19613f1185613dd9565b830182613eb9565b50505b505050565b5f82821c905092915050565b5f613f3c5f1984600802613f21565b1980831691505092915050565b5f613f548383613f2d565b9150826002028217905092915050565b613f6d82613718565b67ffffffffffffffff811115613f8657613f85613558565b5b613f908254613d09565b613f9b828285613edb565b5f60209050601f831160018114613fcc575f8415613fba578287015190505b613fc48582613f49565b86555061402b565b601f198416613fda86613dc7565b5f5b8281101561400157848901518255600182019150602085019450602081019050613fdc565b8683101561401e578489015161401a601f891682613f2d565b8355505b6001600288020188555050505b505050505050565b5f6040820190506140465f830185613709565b8181036020830152614058818461375a565b90509392505050565b7f4f6e6c79204469737472696275746f72732063616e20616c6c207468697300005f82015250565b5f614095601e83613722565b91506140a082614061565b602082019050919050565b5f6020820190508181035f8301526140c281614089565b9050919050565b7f4f6e6c792052657461696c6572732063616e20616c6c207468697300000000005f82015250565b5f6140fd601b83613722565b9150614108826140c9565b602082019050919050565b5f6020820190508181035f83015261412a816140f1565b9050919050565b7f4974656d2068617320746f2062652073686970706564000000000000000000005f82015250565b5f614165601683613722565b915061417082614131565b602082019050919050565b5f6020820190508181035f83015261419281614159565b9050919050565b7f4e487b71000000000000000000000000000000000000000000000000000000005f52601160045260245ffd5b5f6141d0826134a4565b91506141db836134a4565b92508282019050808211156141f3576141f2614199565b5b92915050565b7f4974656d2068617320746f2062652072656365697665640000000000000000005f82015250565b5f61422d601783613722565b9150614238826141f9565b602082019050919050565b5f6020820190508181035f83015261425a81614221565b9050919050565b7f616d6f756e742073656e74206973206e6f7420656e6f756768000000000000005f82015250565b5f614295601983613722565b91506142a082614261565b602082019050919050565b5f6020820190508181035f8301526142c281614289565b9050919050565b5f6142d3826134a4565b91506142de836134a4565b92508282039050818111156142f6576142f5614199565b5b92915050565b5f81905092915050565b7f6275794974656d000000000000000000000000000000000000000000000000005f82015250565b5f61433a6007836142fc565b915061434582614306565b600782019050919050565b5f61435a8261432e565b9150819050919050565b5f61436e82613718565b61437881856142fc565b9350614388818560208601613732565b80840191505092915050565b5f61439f8284614364565b915081905092915050565b7f70757263686173654974656d00000000000000000000000000000000000000005f82015250565b5f6143de600c836142fc565b91506143e9826143aa565b600c82019050919050565b5f6143fe826143d2565b9150819050919050565b7f4974656d2068617320746f20626520666f722073616c650000000000000000005f82015250565b5f61443c601783613722565b915061444782614408565b602082019050919050565b5f6020820190508181035f83015261446981614430565b9050919050565b7f4974656d2068617320746f2062652070726f63657373656400000000000000005f82015250565b5f6144a4601883613722565b91506144af82614470565b602082019050919050565b5f6020820190508181035f8301526144d181614498565b9050919050565b7f4974656d2068617320746f20626520736f6c64000000000000000000000000005f82015250565b5f61450c601383613722565b9150614517826144d8565b602082019050919050565b5f6020820190508181035f83015261453981614500565b9050919050565b7f6163636f756e742063616e206e6f74206265207468652067656e6573697320615f8201527f63636f756e740000000000000000000000000000000000000000000000000000602082015250565b5f61459a602683613722565b91506145a582614540565b604082019050919050565b5f6020820190508181035f8301526145c78161458e565b9050919050565b7f54686973206163636f756e742073686f756c64276e74206861766520616363655f8201527f737320696e697469616c6c790000000000000000000000000000000000000000602082015250565b5f614628602c83613722565b9150614633826145ce565b604082019050919050565b5f6020820190508181035f8301526146558161461c565b9050919050565b7f54686973206163636f756e742073686f756c64206861766520616363657373205f8201527f696e697469616c6c790000000000000000000000000000000000000000000000602082015250565b5f6146b6602983613722565b91506146c18261465c565b604082019050919050565b5f6020820190508181035f8301526146e3816146aa565b905091905056fea264697066735822122083cdd4b20276c7589bf83fca1f962f08f1e8b7dcd426d5dcdd4eee0e649cbe6c64736f6c63430008140033",
  "immutableReferences": {},
  "source": "// SPDX-License-Identifier: GPL-3.0\npragma solidity >=0.4.24;\n\nimport \"../coffeebase/SupplyChain.sol\";\n\n/// Provides basic authorization control\ncontract Ownable is SupplyChain {\n    address private origOwner;\n\n    // Define an Event\n    event TransferOwnership(address indexed oldOwner, address indexed newOwner);\n\n    /// Assign the contract to an owner\n    constructor () payable  {\n        origOwner = msg.sender;\n        emit TransferOwnership(address(0), origOwner);\n    }\n\n    /// Look up the address of the owner\n    function contractOwner() public view returns (address) {\n        return origOwner;\n    }\n\n    /// Define a function modifier 'onlyOwner'\n    modifier onlyOwner() override  {\n        require(isOwner());\n        _;\n    }\n\n    /// Check if the calling address is the owner of the contract\n    function isOwner() public view returns (bool) {\n        return msg.sender == origOwner;\n    }\n\n    /// Define a function to renounce ownerhip\n    function renounceOwnership() public onlyOwner {\n        emit TransferOwnership(origOwner, address(0));\n        origOwner = address(0);\n    }\n\n    /// Define a public function to transfer ownership\n    function transferOwnership(address newOwner) public onlyOwner {\n        _transferOwnership(newOwner);\n    }\n\n    /// Define an internal function to transfer ownership\n    function _transferOwnership(address newOwner) internal {\n        require(newOwner != address(0));\n        emit TransferOwnership(origOwner, newOwner);\n        origOwner = newOwner;\n    }\n}",
  "sourcePath": "/Users/femi/Github/udacity-Blockchain/architect-blockchain-supplychain/src/truffle/contracts/coffeecore/Ownable.sol",
  "compiler": {
    "name": "solc",
    "version": "0.8.20+commit.a1b79de6.Emscripten.clang"
  },
  "schemaVersion": "3.4.3",
  "updatedAt": "2024-01-15T11:56:03.008Z",
  "networkType": "ethereum",
  "devdoc": {
    "kind": "dev",
    "methods": {},
    "version": 1
  },
  "userdoc": {
    "kind": "user",
    "methods": {
      "constructor": {
        "notice": "Assign the contract to an owner"
      },
      "contractOwner()": {
        "notice": "Look up the address of the owner"
      },
      "isOwner()": {
        "notice": "Check if the calling address is the owner of the contract"
      },
      "renounceOwnership()": {
        "notice": "Define a function to renounce ownerhip"
      },
      "transferOwnership(address)": {
        "notice": "Define a public function to transfer ownership"
      }
    },
    "notice": "Provides basic authorization control",
    "version": 1
  }
}