{
  "contractName": "SupplyChain",
  "abi": [
    {
      "inputs": [],
      "stateMutability": "payable",
      "type": "constructor",
      "payable": true
    },
    {
      "anonymous": false,
      "inputs": [
        {
          "indexed": true,
          "internalType": "address",
          "name": "account",
          "type": "address"
        }
      ],
      "name": "ConsumerAdded",
      "type": "event"
    },
    {
      "anonymous": false,
      "inputs": [
        {
          "indexed": true,
          "internalType": "address",
          "name": "account",
          "type": "address"
        }
      ],
      "name": "ConsumerRemoved",
      "type": "event"
    },
    {
      "anonymous": false,
      "inputs": [
        {
          "indexed": true,
          "internalType": "address",
          "name": "account",
          "type": "address"
        }
      ],
      "name": "DistributorAdded",
      "type": "event"
    },
    {
      "anonymous": false,
      "inputs": [
        {
          "indexed": true,
          "internalType": "address",
          "name": "account",
          "type": "address"
        }
      ],
      "name": "DistributorRemoved",
      "type": "event"
    },
    {
      "anonymous": false,
      "inputs": [
        {
          "indexed": true,
          "internalType": "address",
          "name": "account",
          "type": "address"
        }
      ],
      "name": "FarmerAdded",
      "type": "event"
    },
    {
      "anonymous": false,
      "inputs": [
        {
          "indexed": true,
          "internalType": "address",
          "name": "account",
          "type": "address"
        }
      ],
      "name": "FarmerRemoved",
      "type": "event"
    },
    {
      "anonymous": false,
      "inputs": [
        {
          "indexed": false,
          "internalType": "uint256",
          "name": "upc",
          "type": "uint256"
        }
      ],
      "name": "ForSale",
      "type": "event"
    },
    {
      "anonymous": false,
      "inputs": [
        {
          "indexed": false,
          "internalType": "uint256",
          "name": "upc",
          "type": "uint256"
        }
      ],
      "name": "Harvested",
      "type": "event"
    },
    {
      "anonymous": false,
      "inputs": [
        {
          "indexed": false,
          "internalType": "uint256",
          "name": "upc",
          "type": "uint256"
        },
        {
          "indexed": false,
          "internalType": "string",
          "name": "imageIpfsHash",
          "type": "string"
        }
      ],
      "name": "ImageUploaded",
      "type": "event"
    },
    {
      "anonymous": false,
      "inputs": [
        {
          "indexed": false,
          "internalType": "uint256",
          "name": "upc",
          "type": "uint256"
        }
      ],
      "name": "Packed",
      "type": "event"
    },
    {
      "anonymous": false,
      "inputs": [
        {
          "indexed": false,
          "internalType": "uint256",
          "name": "upc",
          "type": "uint256"
        }
      ],
      "name": "Processed",
      "type": "event"
    },
    {
      "anonymous": false,
      "inputs": [
        {
          "indexed": false,
          "internalType": "uint256",
          "name": "upc",
          "type": "uint256"
        }
      ],
      "name": "Purchased",
      "type": "event"
    },
    {
      "anonymous": false,
      "inputs": [
        {
          "indexed": false,
          "internalType": "uint256",
          "name": "upc",
          "type": "uint256"
        }
      ],
      "name": "Received",
      "type": "event"
    },
    {
      "anonymous": false,
      "inputs": [
        {
          "indexed": true,
          "internalType": "address",
          "name": "account",
          "type": "address"
        }
      ],
      "name": "RetailerAdded",
      "type": "event"
    },
    {
      "anonymous": false,
      "inputs": [
        {
          "indexed": true,
          "internalType": "address",
          "name": "account",
          "type": "address"
        }
      ],
      "name": "RetailerRemoved",
      "type": "event"
    },
    {
      "anonymous": false,
      "inputs": [
        {
          "indexed": false,
          "internalType": "uint256",
          "name": "upc",
          "type": "uint256"
        }
      ],
      "name": "Shipped",
      "type": "event"
    },
    {
      "anonymous": false,
      "inputs": [
        {
          "indexed": false,
          "internalType": "uint256",
          "name": "upc",
          "type": "uint256"
        }
      ],
      "name": "Sold",
      "type": "event"
    },
    {
      "inputs": [
        {
          "internalType": "address",
          "name": "account",
          "type": "address"
        }
      ],
      "name": "addConsumer",
      "outputs": [],
      "stateMutability": "nonpayable",
      "type": "function"
    },
    {
      "inputs": [
        {
          "internalType": "address",
          "name": "account",
          "type": "address"
        }
      ],
      "name": "addDistributor",
      "outputs": [],
      "stateMutability": "nonpayable",
      "type": "function"
    },
    {
      "inputs": [
        {
          "internalType": "address",
          "name": "account",
          "type": "address"
        }
      ],
      "name": "addFarmer",
      "outputs": [],
      "stateMutability": "nonpayable",
      "type": "function"
    },
    {
      "inputs": [
        {
          "internalType": "address",
          "name": "account",
          "type": "address"
        }
      ],
      "name": "addRetailer",
      "outputs": [],
      "stateMutability": "nonpayable",
      "type": "function"
    },
    {
      "inputs": [
        {
          "internalType": "address",
          "name": "account",
          "type": "address"
        }
      ],
      "name": "isConsumer",
      "outputs": [
        {
          "internalType": "bool",
          "name": "",
          "type": "bool"
        }
      ],
      "stateMutability": "view",
      "type": "function",
      "constant": true
    },
    {
      "inputs": [
        {
          "internalType": "address",
          "name": "account",
          "type": "address"
        }
      ],
      "name": "isDistributor",
      "outputs": [
        {
          "internalType": "bool",
          "name": "",
          "type": "bool"
        }
      ],
      "stateMutability": "view",
      "type": "function",
      "constant": true
    },
    {
      "inputs": [
        {
          "internalType": "address",
          "name": "account",
          "type": "address"
        }
      ],
      "name": "isFarmer",
      "outputs": [
        {
          "internalType": "bool",
          "name": "",
          "type": "bool"
        }
      ],
      "stateMutability": "view",
      "type": "function",
      "constant": true
    },
    {
      "inputs": [
        {
          "internalType": "address",
          "name": "account",
          "type": "address"
        }
      ],
      "name": "isRetailer",
      "outputs": [
        {
          "internalType": "bool",
          "name": "",
          "type": "bool"
        }
      ],
      "stateMutability": "view",
      "type": "function",
      "constant": true
    },
    {
      "inputs": [],
      "name": "renounceConsumer",
      "outputs": [],
      "stateMutability": "nonpayable",
      "type": "function"
    },
    {
      "inputs": [],
      "name": "renounceDistributor",
      "outputs": [],
      "stateMutability": "nonpayable",
      "type": "function"
    },
    {
      "inputs": [],
      "name": "renounceFarmer",
      "outputs": [],
      "stateMutability": "nonpayable",
      "type": "function"
    },
    {
      "inputs": [],
      "name": "renounceRetailer",
      "outputs": [],
      "stateMutability": "nonpayable",
      "type": "function"
    },
    {
      "inputs": [
        {
          "internalType": "uint256",
          "name": "_upc",
          "type": "uint256"
        },
        {
          "internalType": "string",
          "name": "_imageIpfsHash",
          "type": "string"
        }
      ],
      "name": "upload",
      "outputs": [],
      "stateMutability": "nonpayable",
      "type": "function"
    },
    {
      "inputs": [
        {
          "internalType": "uint256",
          "name": "_upc",
          "type": "uint256"
        }
      ],
      "name": "read",
      "outputs": [
        {
          "internalType": "string",
          "name": "",
          "type": "string"
        }
      ],
      "stateMutability": "view",
      "type": "function",
      "constant": true
    },
    {
      "inputs": [],
      "name": "kill",
      "outputs": [],
      "stateMutability": "payable",
      "type": "function",
      "payable": true
    },
    {
      "inputs": [
        {
          "internalType": "uint256",
          "name": "_upc",
          "type": "uint256"
        },
        {
          "internalType": "address payable",
          "name": "_originFarmerID",
          "type": "address"
        },
        {
          "internalType": "string",
          "name": "_originFarmName",
          "type": "string"
        },
        {
          "internalType": "string",
          "name": "_originFarmInformation",
          "type": "string"
        },
        {
          "internalType": "string",
          "name": "_originFarmLatitude",
          "type": "string"
        },
        {
          "internalType": "string",
          "name": "_originFarmLongitude",
          "type": "string"
        },
        {
          "internalType": "string",
          "name": "_productNotes",
          "type": "string"
        }
      ],
      "name": "harvestItem",
      "outputs": [],
      "stateMutability": "nonpayable",
      "type": "function"
    },
    {
      "inputs": [
        {
          "internalType": "uint256",
          "name": "_upc",
          "type": "uint256"
        }
      ],
      "name": "processItem",
      "outputs": [],
      "stateMutability": "nonpayable",
      "type": "function"
    },
    {
      "inputs": [
        {
          "internalType": "uint256",
          "name": "_upc",
          "type": "uint256"
        }
      ],
      "name": "packItem",
      "outputs": [],
      "stateMutability": "nonpayable",
      "type": "function"
    },
    {
      "inputs": [
        {
          "internalType": "uint256",
          "name": "_upc",
          "type": "uint256"
        },
        {
          "internalType": "uint256",
          "name": "_price",
          "type": "uint256"
        }
      ],
      "name": "sellItem",
      "outputs": [],
      "stateMutability": "nonpayable",
      "type": "function"
    },
    {
      "inputs": [
        {
          "internalType": "uint256",
          "name": "_upc",
          "type": "uint256"
        }
      ],
      "name": "buyItem",
      "outputs": [],
      "stateMutability": "payable",
      "type": "function",
      "payable": true
    },
    {
      "inputs": [
        {
          "internalType": "uint256",
          "name": "_upc",
          "type": "uint256"
        }
      ],
      "name": "shipItem",
      "outputs": [],
      "stateMutability": "nonpayable",
      "type": "function"
    },
    {
      "inputs": [
        {
          "internalType": "uint256",
          "name": "_upc",
          "type": "uint256"
        }
      ],
      "name": "receiveItem",
      "outputs": [],
      "stateMutability": "nonpayable",
      "type": "function"
    },
    {
      "inputs": [
        {
          "internalType": "uint256",
          "name": "_upc",
          "type": "uint256"
        }
      ],
      "name": "purchaseItem",
      "outputs": [],
      "stateMutability": "payable",
      "type": "function",
      "payable": true
    },
    {
      "inputs": [
        {
          "internalType": "uint256",
          "name": "_upc",
          "type": "uint256"
        }
      ],
      "name": "fetchItemBufferOne",
      "outputs": [
        {
          "internalType": "uint256",
          "name": "itemSKU",
          "type": "uint256"
        },
        {
          "internalType": "uint256",
          "name": "itemUPC",
          "type": "uint256"
        },
        {
          "internalType": "address",
          "name": "ownerID",
          "type": "address"
        },
        {
          "internalType": "address",
          "name": "originFarmerID",
          "type": "address"
        },
        {
          "internalType": "string",
          "name": "originFarmName",
          "type": "string"
        },
        {
          "internalType": "string",
          "name": "originFarmInformation",
          "type": "string"
        },
        {
          "internalType": "string",
          "name": "originFarmLatitude",
          "type": "string"
        },
        {
          "internalType": "string",
          "name": "originFarmLongitude",
          "type": "string"
        }
      ],
      "stateMutability": "view",
      "type": "function",
      "constant": true
    },
    {
      "inputs": [
        {
          "internalType": "uint256",
          "name": "_upc",
          "type": "uint256"
        }
      ],
      "name": "fetchItemBufferTwo",
      "outputs": [
        {
          "internalType": "uint256",
          "name": "itemSKU",
          "type": "uint256"
        },
        {
          "internalType": "uint256",
          "name": "itemUPC",
          "type": "uint256"
        },
        {
          "internalType": "uint256",
          "name": "productID",
          "type": "uint256"
        },
        {
          "internalType": "string",
          "name": "productNotes",
          "type": "string"
        },
        {
          "internalType": "uint256",
          "name": "productPrice",
          "type": "uint256"
        },
        {
          "internalType": "uint256",
          "name": "itemState",
          "type": "uint256"
        },
        {
          "internalType": "address",
          "name": "distributorID",
          "type": "address"
        },
        {
          "internalType": "address",
          "name": "retailerID",
          "type": "address"
        },
        {
          "internalType": "address",
          "name": "consumerID",
          "type": "address"
        }
      ],
      "stateMutability": "view",
      "type": "function",
      "constant": true
    }
  ],
  "bytecode": "0x608060405262000015336200009e60201b60201c565b6200002633620000f960201b60201c565b62000037336200015560201b60201c565b6200004833620001b160201b60201c565b3360045f6101000a81548173ffffffffffffffffffffffffffffffffffffffff021916908373ffffffffffffffffffffffffffffffffffffffff160217905550600160068190555060016005819055506200052a565b620000b3815f6200020d60201b90919060201c565b8073ffffffffffffffffffffffffffffffffffffffff167f2e0ded4123377a3c2bc9a26f1717655a129e2f20752924d42e730ec89c83dbd060405160405180910390a250565b6200010f8160016200020d60201b90919060201c565b8073ffffffffffffffffffffffffffffffffffffffff167fddbf200aa634dc3fb81cfd68583dd1040d1c751d335e1d86b631bde3e977fea860405160405180910390a250565b6200016b8160026200020d60201b90919060201c565b8073ffffffffffffffffffffffffffffffffffffffff167f71ae26cad02663e3d92efd6ec56031a80d74a20c0ab4183faa8bf262261c9baa60405160405180910390a250565b620001c78160036200020d60201b90919060201c565b8073ffffffffffffffffffffffffffffffffffffffff167f28b26e7a3d20aedbc5f8f2ebf7da671c0491723a2b78f47a097b0e46dee0714260405160405180910390a250565b5f73ffffffffffffffffffffffffffffffffffffffff168173ffffffffffffffffffffffffffffffffffffffff16036200027e576040517f08c379a0000000000000000000000000000000000000000000000000000000008152600401620002759062000476565b60405180910390fd5b6200029082826200032d60201b60201c565b15620002d3576040517f08c379a0000000000000000000000000000000000000000000000000000000008152600401620002ca906200050a565b60405180910390fd5b6001825f015f8373ffffffffffffffffffffffffffffffffffffffff1673ffffffffffffffffffffffffffffffffffffffff1681526020019081526020015f205f6101000a81548160ff0219169083151502179055505050565b5f8073ffffffffffffffffffffffffffffffffffffffff168273ffffffffffffffffffffffffffffffffffffffff16036200039f576040517f08c379a0000000000000000000000000000000000000000000000000000000008152600401620003969062000476565b60405180910390fd5b825f015f8373ffffffffffffffffffffffffffffffffffffffff1673ffffffffffffffffffffffffffffffffffffffff1681526020019081526020015f205f9054906101000a900460ff16905092915050565b5f82825260208201905092915050565b7f6163636f756e742063616e206e6f74206265207468652067656e6573697320615f8201527f63636f756e740000000000000000000000000000000000000000000000000000602082015250565b5f6200045e602683620003f2565b91506200046b8262000402565b604082019050919050565b5f6020820190508181035f8301526200048f8162000450565b9050919050565b7f54686973206163636f756e742073686f756c64276e74206861766520616363655f8201527f737320696e697469616c6c790000000000000000000000000000000000000000602082015250565b5f620004f2602c83620003f2565b9150620004ff8262000496565b604082019050919050565b5f6020820190508181035f8301526200052381620004e4565b9050919050565b6144a480620005385f395ff3fe608060405260043610610165575f3560e01c806380fc0ce4116100d0578063bdd8a6a811610089578063e7fb74c711610063578063e7fb74c7146104c6578063ed2e5a97146104e2578063f30fc4801461051e578063f61c899a1461054657610165565b8063bdd8a6a81461046c578063d38ea5bf14610494578063db0e6a2f146104b057610165565b806380fc0ce414610352578063834ff739146103685780638ec4f505146103a45780638f0c86fa146103cc578063a26be99914610408578063b94290691461043057610165565b806361e6982d1161012257806361e6982d1461024f578063644241db1461026557806366225ff91461027b5780637250e224146102bf57806377c45913146102e757806380c3f96d1461032a57610165565b8063112940f9146101695780632d9235611461019157806341c0e1b5146101b957806349dae766146101c35780634d725e95146101eb5780635da09b8814610213575b5f80fd5b348015610174575f80fd5b5061018f600480360381019061018a91906131ae565b61056e565b005b34801561019c575f80fd5b506101b760048036038101906101b2919061320c565b6105c2565b005b6101c1610793565b005b3480156101ce575f80fd5b506101e960048036038101906101e4919061324a565b6108de565b005b3480156101f6575f80fd5b50610211600480360381019061020c91906133b1565b610a94565b005b34801561021e575f80fd5b50610239600480360381019061023491906131ae565b610c37565b6040516102469190613425565b60405180910390f35b34801561025a575f80fd5b50610263610c53565b005b348015610270575f80fd5b50610279610c5e565b005b348015610286575f80fd5b506102a1600480360381019061029c919061324a565b610c69565b6040516102b6999897969594939291906134d6565b60405180910390f35b3480156102ca575f80fd5b506102e560048036038101906102e091906131ae565b6111d3565b005b3480156102f2575f80fd5b5061030d6004803603810190610308919061324a565b611227565b604051610321989796959493929190613568565b60405180910390f35b348015610335575f80fd5b50610350600480360381019061034b91906131ae565b61176f565b005b34801561035d575f80fd5b506103666117c3565b005b348015610373575f80fd5b5061038e600480360381019061038991906131ae565b6117ce565b60405161039b9190613425565b60405180910390f35b3480156103af575f80fd5b506103ca60048036038101906103c591906131ae565b6117ea565b005b3480156103d7575f80fd5b506103f260048036038101906103ed91906131ae565b61183e565b6040516103ff9190613425565b60405180910390f35b348015610413575f80fd5b5061042e6004803603810190610429919061324a565b61185a565b005b34801561043b575f80fd5b50610456600480360381019061045191906131ae565b611a45565b6040516104639190613425565b60405180910390f35b348015610477575f80fd5b50610492600480360381019061048d919061363b565b611a60565b005b6104ae60048036038101906104a9919061324a565b611e32565b005b3480156104bb575f80fd5b506104c46122d2565b005b6104e060048036038101906104db919061324a565b6122dd565b005b3480156104ed575f80fd5b506105086004803603810190610503919061324a565b61277f565b6040516105159190613764565b60405180910390f35b348015610529575f80fd5b50610544600480360381019061053f919061324a565b612823565b005b348015610551575f80fd5b5061056c6004803603810190610567919061324a565b6129da565b005b610577336117ce565b6105b6576040517f08c379a00000000000000000000000000000000000000000000000000000000081526004016105ad906137ce565b60405180910390fd5b6105bf81612b91565b50565b81600260078111156105d7576105d66137ec565b5b60075f8381526020019081526020015f20600b015f9054906101000a900460ff16600781111561060a576106096137ec565b5b1461064a576040517f08c379a000000000000000000000000000000000000000000000000000000000815260040161064190613863565b60405180910390fd5b338073ffffffffffffffffffffffffffffffffffffffff163373ffffffffffffffffffffffffffffffffffffffff16146106b9576040517f08c379a00000000000000000000000000000000000000000000000000000000081526004016106b0906138f1565b60405180910390fd5b6106c233611a45565b610701576040517f08c379a00000000000000000000000000000000000000000000000000000000081526004016106f890613959565b60405180910390fd5b600360075f8681526020019081526020015f20600b015f6101000a81548160ff02191690836007811115610738576107376137ec565b5b02179055508260075f8681526020019081526020015f20600a01819055507fa96ae0fc3224ebd79eebfe54bd130cc9cb94416cddd1f2386115e00b72532468846040516107859190613977565b60405180910390a150505050565b60045f9054906101000a900473ffffffffffffffffffffffffffffffffffffffff1673ffffffffffffffffffffffffffffffffffffffff163373ffffffffffffffffffffffffffffffffffffffff1614610822576040517f08c379a0000000000000000000000000000000000000000000000000000000008152600401610819906139da565b60405180910390fd5b60045f9054906101000a900473ffffffffffffffffffffffffffffffffffffffff1673ffffffffffffffffffffffffffffffffffffffff163373ffffffffffffffffffffffffffffffffffffffff16036108dc5760045f9054906101000a900473ffffffffffffffffffffffffffffffffffffffff1673ffffffffffffffffffffffffffffffffffffffff166108fc4790811502906040515f60405180830381858888f193505050501580156108da573d5f803e3d5ffd5b505b565b805f60078111156108f2576108f16137ec565b5b60075f8381526020019081526020015f20600b015f9054906101000a900460ff166007811115610925576109246137ec565b5b14610965576040517f08c379a000000000000000000000000000000000000000000000000000000000815260040161095c90613a42565b60405180910390fd5b338073ffffffffffffffffffffffffffffffffffffffff163373ffffffffffffffffffffffffffffffffffffffff16146109d4576040517f08c379a00000000000000000000000000000000000000000000000000000000081526004016109cb906138f1565b60405180910390fd5b6109dd33611a45565b610a1c576040517f08c379a0000000000000000000000000000000000000000000000000000000008152600401610a1390613959565b60405180910390fd5b600160075f8581526020019081526020015f20600b015f6101000a81548160ff02191690836007811115610a5357610a526137ec565b5b02179055507f5afe3b1bf87069693c075da5c22a98d63d1aef98a30dbbe538d0781a98b77ee583604051610a879190613977565b60405180910390a1505050565b610a9d33611a45565b610adc576040517f08c379a0000000000000000000000000000000000000000000000000000000008152600401610ad390613959565b60405180910390fd5b338073ffffffffffffffffffffffffffffffffffffffff163373ffffffffffffffffffffffffffffffffffffffff1614610b4b576040517f08c379a0000000000000000000000000000000000000000000000000000000008152600401610b42906138f1565b60405180910390fd5b5f60095f8581526020019081526020015f206001018054610b6b90613a8d565b905014610bad576040517f08c379a0000000000000000000000000000000000000000000000000000000008152600401610ba490613b2d565b60405180910390fd5b5f60405180604001604052808581526020018481525090508060095f8681526020019081526020015f205f820151815f01556020820151816001019081610bf49190613ce8565b509050507f72efb2e6cb55af9fcd81678e0730b9d670e9a0f627ff0ff986cf5171b12565c78484604051610c29929190613db7565b60405180910390a150505050565b5f610c4c826002612beb90919063ffffffff16565b9050919050565b610c5c33612cad565b565b610c6733612d07565b565b5f805f60605f805f805f8060075f8c81526020019081526020015f20604051806101e00160405290815f820154815260200160018201548152602001600282015f9054906101000a900473ffffffffffffffffffffffffffffffffffffffff1673ffffffffffffffffffffffffffffffffffffffff1673ffffffffffffffffffffffffffffffffffffffff168152602001600382015f9054906101000a900473ffffffffffffffffffffffffffffffffffffffff1673ffffffffffffffffffffffffffffffffffffffff1673ffffffffffffffffffffffffffffffffffffffff168152602001600482018054610d5e90613a8d565b80601f0160208091040260200160405190810160405280929190818152602001828054610d8a90613a8d565b8015610dd55780601f10610dac57610100808354040283529160200191610dd5565b820191905f5260205f20905b815481529060010190602001808311610db857829003601f168201915b50505050508152602001600582018054610dee90613a8d565b80601f0160208091040260200160405190810160405280929190818152602001828054610e1a90613a8d565b8015610e655780601f10610e3c57610100808354040283529160200191610e65565b820191905f5260205f20905b815481529060010190602001808311610e4857829003601f168201915b50505050508152602001600682018054610e7e90613a8d565b80601f0160208091040260200160405190810160405280929190818152602001828054610eaa90613a8d565b8015610ef55780601f10610ecc57610100808354040283529160200191610ef5565b820191905f5260205f20905b815481529060010190602001808311610ed857829003601f168201915b50505050508152602001600782018054610f0e90613a8d565b80601f0160208091040260200160405190810160405280929190818152602001828054610f3a90613a8d565b8015610f855780601f10610f5c57610100808354040283529160200191610f85565b820191905f5260205f20905b815481529060010190602001808311610f6857829003601f168201915b5050505050815260200160088201548152602001600982018054610fa890613a8d565b80601f0160208091040260200160405190810160405280929190818152602001828054610fd490613a8d565b801561101f5780601f10610ff65761010080835404028352916020019161101f565b820191905f5260205f20905b81548152906001019060200180831161100257829003601f168201915b50505050508152602001600a8201548152602001600b82015f9054906101000a900460ff166007811115611056576110556137ec565b5b6007811115611068576110676137ec565b5b8152602001600b820160019054906101000a900473ffffffffffffffffffffffffffffffffffffffff1673ffffffffffffffffffffffffffffffffffffffff1673ffffffffffffffffffffffffffffffffffffffff168152602001600c82015f9054906101000a900473ffffffffffffffffffffffffffffffffffffffff1673ffffffffffffffffffffffffffffffffffffffff1673ffffffffffffffffffffffffffffffffffffffff168152602001600d82015f9054906101000a900473ffffffffffffffffffffffffffffffffffffffff1673ffffffffffffffffffffffffffffffffffffffff1673ffffffffffffffffffffffffffffffffffffffff16815250509050805f0151816020015182610100015183610120015184610140015185610160015160078111156111a1576111a06137ec565b5b866101800151876101a00151886101c00151995099509950995099509950995099509950509193959799909294969850565b6111dc3361183e565b61121b576040517f08c379a000000000000000000000000000000000000000000000000000000000815260040161121290613e2f565b60405180910390fd5b61122481612d61565b50565b5f805f806060806060805f60075f8b81526020019081526020015f20604051806101e00160405290815f820154815260200160018201548152602001600282015f9054906101000a900473ffffffffffffffffffffffffffffffffffffffff1673ffffffffffffffffffffffffffffffffffffffff1673ffffffffffffffffffffffffffffffffffffffff168152602001600382015f9054906101000a900473ffffffffffffffffffffffffffffffffffffffff1673ffffffffffffffffffffffffffffffffffffffff1673ffffffffffffffffffffffffffffffffffffffff16815260200160048201805461131c90613a8d565b80601f016020809104026020016040519081016040528092919081815260200182805461134890613a8d565b80156113935780601f1061136a57610100808354040283529160200191611393565b820191905f5260205f20905b81548152906001019060200180831161137657829003601f168201915b505050505081526020016005820180546113ac90613a8d565b80601f01602080910402602001604051908101604052809291908181526020018280546113d890613a8d565b80156114235780601f106113fa57610100808354040283529160200191611423565b820191905f5260205f20905b81548152906001019060200180831161140657829003601f168201915b5050505050815260200160068201805461143c90613a8d565b80601f016020809104026020016040519081016040528092919081815260200182805461146890613a8d565b80156114b35780601f1061148a576101008083540402835291602001916114b3565b820191905f5260205f20905b81548152906001019060200180831161149657829003601f168201915b505050505081526020016007820180546114cc90613a8d565b80601f01602080910402602001604051908101604052809291908181526020018280546114f890613a8d565b80156115435780601f1061151a57610100808354040283529160200191611543565b820191905f5260205f20905b81548152906001019060200180831161152657829003601f168201915b505050505081526020016008820154815260200160098201805461156690613a8d565b80601f016020809104026020016040519081016040528092919081815260200182805461159290613a8d565b80156115dd5780601f106115b4576101008083540402835291602001916115dd565b820191905f5260205f20905b8154815290600101906020018083116115c057829003601f168201915b50505050508152602001600a8201548152602001600b82015f9054906101000a900460ff166007811115611614576116136137ec565b5b6007811115611626576116256137ec565b5b8152602001600b820160019054906101000a900473ffffffffffffffffffffffffffffffffffffffff1673ffffffffffffffffffffffffffffffffffffffff1673ffffffffffffffffffffffffffffffffffffffff168152602001600c82015f9054906101000a900473ffffffffffffffffffffffffffffffffffffffff1673ffffffffffffffffffffffffffffffffffffffff1673ffffffffffffffffffffffffffffffffffffffff168152602001600d82015f9054906101000a900473ffffffffffffffffffffffffffffffffffffffff1673ffffffffffffffffffffffffffffffffffffffff1673ffffffffffffffffffffffffffffffffffffffff16815250509050805f015181602001518260400151836060015184608001518560a001518660c001518760e001519850985098509850985098509850985050919395975091939597565b61177833611a45565b6117b7576040517f08c379a00000000000000000000000000000000000000000000000000000000081526004016117ae90613959565b60405180910390fd5b6117c081612dbb565b50565b6117cc33612e14565b565b5f6117e3826003612beb90919063ffffffff16565b9050919050565b6117f333610c37565b611832576040517f08c379a000000000000000000000000000000000000000000000000000000000815260040161182990613e97565b60405180910390fd5b61183b81612e6d565b50565b5f611853826001612beb90919063ffffffff16565b9050919050565b806005600781111561186f5761186e6137ec565b5b60075f8381526020019081526020015f20600b015f9054906101000a900460ff1660078111156118a2576118a16137ec565b5b146118e2576040517f08c379a00000000000000000000000000000000000000000000000000000000081526004016118d990613eff565b60405180910390fd5b6118eb33610c37565b61192a576040517f08c379a000000000000000000000000000000000000000000000000000000000815260040161192190613e97565b60405180910390fd5b3360075f8481526020019081526020015f206002015f6101000a81548173ffffffffffffffffffffffffffffffffffffffff021916908373ffffffffffffffffffffffffffffffffffffffff1602179055503360075f8481526020019081526020015f20600c015f6101000a81548173ffffffffffffffffffffffffffffffffffffffff021916908373ffffffffffffffffffffffffffffffffffffffff160217905550600660075f8481526020019081526020015f20600b015f6101000a81548160ff02191690836007811115611a0557611a046137ec565b5b02179055507fa8142743f8f70a4c26f3691cf4ed59718381fb2f18070ec52be1f1022d85555782604051611a399190613977565b60405180910390a15050565b5f611a59825f612beb90919063ffffffff16565b9050919050565b611a6933611a45565b611aa8576040517f08c379a0000000000000000000000000000000000000000000000000000000008152600401611a9f90613959565b60405180910390fd5b6001600654611ab79190613f4a565b6006819055505f604051806101e0016040528060065481526020018981526020015f73ffffffffffffffffffffffffffffffffffffffff1681526020018873ffffffffffffffffffffffffffffffffffffffff1681526020018781526020018681526020018581526020018481526020016006548a611b369190613f4a565b81526020018381526020015f81526020015f6007811115611b5a57611b596137ec565b5b81526020015f73ffffffffffffffffffffffffffffffffffffffff1681526020015f73ffffffffffffffffffffffffffffffffffffffff1681526020015f73ffffffffffffffffffffffffffffffffffffffff1681525090507f8e55ccfc9778ff8eba1646d765cf1982537ce0f9257054a17b48aad74525018388604051611be29190613977565b60405180910390a18060075f8a81526020019081526020015f205f820151815f0155602082015181600101556040820151816002015f6101000a81548173ffffffffffffffffffffffffffffffffffffffff021916908373ffffffffffffffffffffffffffffffffffffffff1602179055506060820151816003015f6101000a81548173ffffffffffffffffffffffffffffffffffffffff021916908373ffffffffffffffffffffffffffffffffffffffff1602179055506080820151816004019081611caf9190613ce8565b5060a0820151816005019081611cc59190613ce8565b5060c0820151816006019081611cdb9190613ce8565b5060e0820151816007019081611cf19190613ce8565b506101008201518160080155610120820151816009019081611d139190613ce8565b5061014082015181600a015561016082015181600b015f6101000a81548160ff02191690836007811115611d4a57611d496137ec565b5b021790555061018082015181600b0160016101000a81548173ffffffffffffffffffffffffffffffffffffffff021916908373ffffffffffffffffffffffffffffffffffffffff1602179055506101a082015181600c015f6101000a81548173ffffffffffffffffffffffffffffffffffffffff021916908373ffffffffffffffffffffffffffffffffffffffff1602179055506101c082015181600d015f6101000a81548173ffffffffffffffffffffffffffffffffffffffff021916908373ffffffffffffffffffffffffffffffffffffffff1602179055509050505050505050505050565b8060066007811115611e4757611e466137ec565b5b60075f8381526020019081526020015f20600b015f9054906101000a900460ff166007811115611e7a57611e796137ec565b5b14611eba576040517f08c379a0000000000000000000000000000000000000000000000000000000008152600401611eb190613fc7565b60405180910390fd5b3480341015611efe576040517f08c379a0000000000000000000000000000000000000000000000000000000008152600401611ef59061402f565b60405180910390fd5b611f07336117ce565b611f46576040517f08c379a0000000000000000000000000000000000000000000000000000000008152600401611f3d906137ce565b60405180910390fd5b826040518060400160405280600c81526020017f70757263686173654974656d00000000000000000000000000000000000000008152503360075f8781526020019081526020015f206002015f6101000a81548173ffffffffffffffffffffffffffffffffffffffff021916908373ffffffffffffffffffffffffffffffffffffffff1602179055503360075f8781526020019081526020015f20600d015f6101000a81548173ffffffffffffffffffffffffffffffffffffffff021916908373ffffffffffffffffffffffffffffffffffffffff1602179055506007805f8781526020019081526020015f20600b015f6101000a81548160ff02191690836007811115612057576120566137ec565b5b021790555060075f8681526020019081526020015f20600c015f9054906101000a900473ffffffffffffffffffffffffffffffffffffffff1673ffffffffffffffffffffffffffffffffffffffff166108fc3490811502906040515f60405180830381858888f193505050501580156120d2573d5f803e3d5ffd5b507f653d56639fee6b566a5c804764e9689de38645f0b733df89a36a1b7b42173dd8856040516121029190613977565b60405180910390a15f60075f8481526020019081526020015f20600a015490505f813461212f919061404d565b9050604051602001612140906140d4565b60405160208183030381529060405280519060200120836040516020016121679190614118565b60405160208183030381529060405280519060200120036121ff5760075f8581526020019081526020015f20600b0160019054906101000a900473ffffffffffffffffffffffffffffffffffffffff1673ffffffffffffffffffffffffffffffffffffffff166108fc8290811502906040515f60405180830381858888f193505050501580156121f9573d5f803e3d5ffd5b506122c9565b60405160200161220e90614178565b60405160208183030381529060405280519060200120836040516020016122359190614118565b60405160208183030381529060405280519060200120036122c85760075f8581526020019081526020015f20600d015f9054906101000a900473ffffffffffffffffffffffffffffffffffffffff1673ffffffffffffffffffffffffffffffffffffffff166108fc8290811502906040515f60405180830381858888f193505050501580156122c6573d5f803e3d5ffd5b505b5b50505050505050565b6122db33612ec7565b565b80600360078111156122f2576122f16137ec565b5b60075f8381526020019081526020015f20600b015f9054906101000a900460ff166007811115612325576123246137ec565b5b14612365576040517f08c379a000000000000000000000000000000000000000000000000000000000815260040161235c906141d6565b60405180910390fd5b34803410156123a9576040517f08c379a00000000000000000000000000000000000000000000000000000000081526004016123a09061402f565b60405180910390fd5b826040518060400160405280600781526020017f6275794974656d000000000000000000000000000000000000000000000000008152506123e93361183e565b612428576040517f08c379a000000000000000000000000000000000000000000000000000000000815260040161241f90613e2f565b60405180910390fd5b3360075f8781526020019081526020015f206002015f6101000a81548173ffffffffffffffffffffffffffffffffffffffff021916908373ffffffffffffffffffffffffffffffffffffffff1602179055503360075f8781526020019081526020015f20600b0160016101000a81548173ffffffffffffffffffffffffffffffffffffffff021916908373ffffffffffffffffffffffffffffffffffffffff160217905550600460075f8781526020019081526020015f20600b015f6101000a81548160ff02191690836007811115612504576125036137ec565b5b021790555060075f8681526020019081526020015f206003015f9054906101000a900473ffffffffffffffffffffffffffffffffffffffff1673ffffffffffffffffffffffffffffffffffffffff166108fc3490811502906040515f60405180830381858888f1935050505015801561257f573d5f803e3d5ffd5b507f92f64ca637d023f354075a4be751b169c1a8a9ccb6d33cdd0cb3520543995727856040516125af9190613977565b60405180910390a15f60075f8481526020019081526020015f20600a015490505f81346125dc919061404d565b90506040516020016125ed906140d4565b60405160208183030381529060405280519060200120836040516020016126149190614118565b60405160208183030381529060405280519060200120036126ac5760075f8581526020019081526020015f20600b0160019054906101000a900473ffffffffffffffffffffffffffffffffffffffff1673ffffffffffffffffffffffffffffffffffffffff166108fc8290811502906040515f60405180830381858888f193505050501580156126a6573d5f803e3d5ffd5b50612776565b6040516020016126bb90614178565b60405160208183030381529060405280519060200120836040516020016126e29190614118565b60405160208183030381529060405280519060200120036127755760075f8581526020019081526020015f20600d015f9054906101000a900473ffffffffffffffffffffffffffffffffffffffff1673ffffffffffffffffffffffffffffffffffffffff166108fc8290811502906040515f60405180830381858888f19350505050158015612773573d5f803e3d5ffd5b505b5b50505050505050565b606060095f8381526020019081526020015f2060010180546127a090613a8d565b80601f01602080910402602001604051908101604052809291908181526020018280546127cc90613a8d565b80156128175780601f106127ee57610100808354040283529160200191612817565b820191905f5260205f20905b8154815290600101906020018083116127fa57829003601f168201915b50505050509050919050565b8060016007811115612838576128376137ec565b5b60075f8381526020019081526020015f20600b015f9054906101000a900460ff16600781111561286b5761286a6137ec565b5b146128ab576040517f08c379a00000000000000000000000000000000000000000000000000000000081526004016128a29061423e565b60405180910390fd5b338073ffffffffffffffffffffffffffffffffffffffff163373ffffffffffffffffffffffffffffffffffffffff161461291a576040517f08c379a0000000000000000000000000000000000000000000000000000000008152600401612911906138f1565b60405180910390fd5b61292333611a45565b612962576040517f08c379a000000000000000000000000000000000000000000000000000000000815260040161295990613959565b60405180910390fd5b600260075f8581526020019081526020015f20600b015f6101000a81548160ff02191690836007811115612999576129986137ec565b5b02179055507f9b3b66e2380b690bae22c73ef1428fb0c91e72fe14a4b6defa13035214187aff836040516129cd9190613977565b60405180910390a1505050565b80600460078111156129ef576129ee6137ec565b5b60075f8381526020019081526020015f20600b015f9054906101000a900460ff166007811115612a2257612a216137ec565b5b14612a62576040517f08c379a0000000000000000000000000000000000000000000000000000000008152600401612a59906142a6565b60405180910390fd5b338073ffffffffffffffffffffffffffffffffffffffff163373ffffffffffffffffffffffffffffffffffffffff1614612ad1576040517f08c379a0000000000000000000000000000000000000000000000000000000008152600401612ac8906138f1565b60405180910390fd5b612ada3361183e565b612b19576040517f08c379a0000000000000000000000000000000000000000000000000000000008152600401612b1090613e2f565b60405180910390fd5b600560075f8581526020019081526020015f20600b015f6101000a81548160ff02191690836007811115612b5057612b4f6137ec565b5b02179055507ff00b9a5725b80c54016f42114f6ed7792d22eecb116011c4afac29c57bef6c9583604051612b849190613977565b60405180910390a1505050565b612ba5816003612f2190919063ffffffff16565b8073ffffffffffffffffffffffffffffffffffffffff167f28b26e7a3d20aedbc5f8f2ebf7da671c0491723a2b78f47a097b0e46dee0714260405160405180910390a250565b5f8073ffffffffffffffffffffffffffffffffffffffff168273ffffffffffffffffffffffffffffffffffffffff1603612c5a576040517f08c379a0000000000000000000000000000000000000000000000000000000008152600401612c5190614334565b60405180910390fd5b825f015f8373ffffffffffffffffffffffffffffffffffffffff1673ffffffffffffffffffffffffffffffffffffffff1681526020019081526020015f205f9054906101000a900460ff16905092915050565b612cc181600361303390919063ffffffff16565b8073ffffffffffffffffffffffffffffffffffffffff167fe3f5ed5f263f1f01764a96edfc7d025f511ec5f7d180e8816908b78bcf74f09860405160405180910390a250565b612d1b81600161303390919063ffffffff16565b8073ffffffffffffffffffffffffffffffffffffffff167f126174f6cf49c81cdb4a9214c6b8f037bef55b4ec31e4fc776cea2a1c8a88d5960405160405180910390a250565b612d75816001612f2190919063ffffffff16565b8073ffffffffffffffffffffffffffffffffffffffff167fddbf200aa634dc3fb81cfd68583dd1040d1c751d335e1d86b631bde3e977fea860405160405180910390a250565b612dce815f612f2190919063ffffffff16565b8073ffffffffffffffffffffffffffffffffffffffff167f2e0ded4123377a3c2bc9a26f1717655a129e2f20752924d42e730ec89c83dbd060405160405180910390a250565b612e27815f61303390919063ffffffff16565b8073ffffffffffffffffffffffffffffffffffffffff167fa5e0f060af304ab17dd418c7927e3da3ae7868189bf387aee09ab179ccc572f260405160405180910390a250565b612e81816002612f2190919063ffffffff16565b8073ffffffffffffffffffffffffffffffffffffffff167f71ae26cad02663e3d92efd6ec56031a80d74a20c0ab4183faa8bf262261c9baa60405160405180910390a250565b612edb81600261303390919063ffffffff16565b8073ffffffffffffffffffffffffffffffffffffffff167fdb7176e79cffef81cb01767dd0447a0b24bb72ca9778d4b245581086b2a7e6db60405160405180910390a250565b5f73ffffffffffffffffffffffffffffffffffffffff168173ffffffffffffffffffffffffffffffffffffffff1603612f8f576040517f08c379a0000000000000000000000000000000000000000000000000000000008152600401612f8690614334565b60405180910390fd5b612f998282612beb565b15612fd9576040517f08c379a0000000000000000000000000000000000000000000000000000000008152600401612fd0906143c2565b60405180910390fd5b6001825f015f8373ffffffffffffffffffffffffffffffffffffffff1673ffffffffffffffffffffffffffffffffffffffff1681526020019081526020015f205f6101000a81548160ff0219169083151502179055505050565b5f73ffffffffffffffffffffffffffffffffffffffff168173ffffffffffffffffffffffffffffffffffffffff16036130a1576040517f08c379a000000000000000000000000000000000000000000000000000000000815260040161309890614334565b60405180910390fd5b6130ab8282612beb565b6130ea576040517f08c379a00000000000000000000000000000000000000000000000000000000081526004016130e190614450565b60405180910390fd5b5f825f015f8373ffffffffffffffffffffffffffffffffffffffff1673ffffffffffffffffffffffffffffffffffffffff1681526020019081526020015f205f6101000a81548160ff0219169083151502179055505050565b5f604051905090565b5f80fd5b5f80fd5b5f73ffffffffffffffffffffffffffffffffffffffff82169050919050565b5f61317d82613154565b9050919050565b61318d81613173565b8114613197575f80fd5b50565b5f813590506131a881613184565b92915050565b5f602082840312156131c3576131c261314c565b5b5f6131d08482850161319a565b91505092915050565b5f819050919050565b6131eb816131d9565b81146131f5575f80fd5b50565b5f81359050613206816131e2565b92915050565b5f80604083850312156132225761322161314c565b5b5f61322f858286016131f8565b9250506020613240858286016131f8565b9150509250929050565b5f6020828403121561325f5761325e61314c565b5b5f61326c848285016131f8565b91505092915050565b5f80fd5b5f80fd5b5f601f19601f8301169050919050565b7f4e487b71000000000000000000000000000000000000000000000000000000005f52604160045260245ffd5b6132c38261327d565b810181811067ffffffffffffffff821117156132e2576132e161328d565b5b80604052505050565b5f6132f4613143565b905061330082826132ba565b919050565b5f67ffffffffffffffff82111561331f5761331e61328d565b5b6133288261327d565b9050602081019050919050565b828183375f83830152505050565b5f61335561335084613305565b6132eb565b90508281526020810184848401111561337157613370613279565b5b61337c848285613335565b509392505050565b5f82601f83011261339857613397613275565b5b81356133a8848260208601613343565b91505092915050565b5f80604083850312156133c7576133c661314c565b5b5f6133d4858286016131f8565b925050602083013567ffffffffffffffff8111156133f5576133f4613150565b5b61340185828601613384565b9150509250929050565b5f8115159050919050565b61341f8161340b565b82525050565b5f6020820190506134385f830184613416565b92915050565b613447816131d9565b82525050565b5f81519050919050565b5f82825260208201905092915050565b5f5b83811015613484578082015181840152602081019050613469565b5f8484015250505050565b5f6134998261344d565b6134a38185613457565b93506134b3818560208601613467565b6134bc8161327d565b840191505092915050565b6134d081613173565b82525050565b5f610120820190506134ea5f83018c61343e565b6134f7602083018b61343e565b613504604083018a61343e565b8181036060830152613516818961348f565b9050613525608083018861343e565b61353260a083018761343e565b61353f60c08301866134c7565b61354c60e08301856134c7565b61355a6101008301846134c7565b9a9950505050505050505050565b5f6101008201905061357c5f83018b61343e565b613589602083018a61343e565b61359660408301896134c7565b6135a360608301886134c7565b81810360808301526135b5818761348f565b905081810360a08301526135c9818661348f565b905081810360c08301526135dd818561348f565b905081810360e08301526135f1818461348f565b90509998505050505050505050565b5f61360a82613154565b9050919050565b61361a81613600565b8114613624575f80fd5b50565b5f8135905061363581613611565b92915050565b5f805f805f805f60e0888a0312156136565761365561314c565b5b5f6136638a828b016131f8565b97505060206136748a828b01613627565b965050604088013567ffffffffffffffff81111561369557613694613150565b5b6136a18a828b01613384565b955050606088013567ffffffffffffffff8111156136c2576136c1613150565b5b6136ce8a828b01613384565b945050608088013567ffffffffffffffff8111156136ef576136ee613150565b5b6136fb8a828b01613384565b93505060a088013567ffffffffffffffff81111561371c5761371b613150565b5b6137288a828b01613384565b92505060c088013567ffffffffffffffff81111561374957613748613150565b5b6137558a828b01613384565b91505092959891949750929550565b5f6020820190508181035f83015261377c818461348f565b905092915050565b7f4f6e6c7920436f6e73756d6572732063616e20616c6c207468697300000000005f82015250565b5f6137b8601b83613457565b91506137c382613784565b602082019050919050565b5f6020820190508181035f8301526137e5816137ac565b9050919050565b7f4e487b71000000000000000000000000000000000000000000000000000000005f52602160045260245ffd5b7f4974656d2068617320746f206265207061636b656400000000000000000000005f82015250565b5f61384d601583613457565b915061385882613819565b602082019050919050565b5f6020820190508181035f83015261387a81613841565b9050919050565b7f796f7520617265206e6f7420616c6c6f77656420746f20706572666f726d20745f8201527f686973206f7065726174696f6e00000000000000000000000000000000000000602082015250565b5f6138db602d83613457565b91506138e682613881565b604082019050919050565b5f6020820190508181035f830152613908816138cf565b9050919050565b7f4f6e6c79204661726d6572732063616e20616c6c2074686973000000000000005f82015250565b5f613943601983613457565b915061394e8261390f565b602082019050919050565b5f6020820190508181035f83015261397081613937565b9050919050565b5f60208201905061398a5f83018461343e565b92915050565b7f6f6e6c79206f776e65722063616e2063616c6c207468697300000000000000005f82015250565b5f6139c4601883613457565b91506139cf82613990565b602082019050919050565b5f6020820190508181035f8301526139f1816139b8565b9050919050565b7f4974656d2068617320746f2062652068617276657374656400000000000000005f82015250565b5f613a2c601883613457565b9150613a37826139f8565b602082019050919050565b5f6020820190508181035f830152613a5981613a20565b9050919050565b7f4e487b71000000000000000000000000000000000000000000000000000000005f52602260045260245ffd5b5f6002820490506001821680613aa457607f821691505b602082108103613ab757613ab6613a60565b5b50919050565b7f49706673206861736820616c72656164792075706c6f6164656420666f7220745f8201527f6869732075706300000000000000000000000000000000000000000000000000602082015250565b5f613b17602783613457565b9150613b2282613abd565b604082019050919050565b5f6020820190508181035f830152613b4481613b0b565b9050919050565b5f819050815f5260205f209050919050565b5f6020601f8301049050919050565b5f82821b905092915050565b5f60088302613ba77fffffffffffffffffffffffffffffffffffffffffffffffffffffffffffffffff82613b6c565b613bb18683613b6c565b95508019841693508086168417925050509392505050565b5f819050919050565b5f613bec613be7613be2846131d9565b613bc9565b6131d9565b9050919050565b5f819050919050565b613c0583613bd2565b613c19613c1182613bf3565b848454613b78565b825550505050565b5f90565b613c2d613c21565b613c38818484613bfc565b505050565b5b81811015613c5b57613c505f82613c25565b600181019050613c3e565b5050565b601f821115613ca057613c7181613b4b565b613c7a84613b5d565b81016020851015613c89578190505b613c9d613c9585613b5d565b830182613c3d565b50505b505050565b5f82821c905092915050565b5f613cc05f1984600802613ca5565b1980831691505092915050565b5f613cd88383613cb1565b9150826002028217905092915050565b613cf18261344d565b67ffffffffffffffff811115613d0a57613d0961328d565b5b613d148254613a8d565b613d1f828285613c5f565b5f60209050601f831160018114613d50575f8415613d3e578287015190505b613d488582613ccd565b865550613daf565b601f198416613d5e86613b4b565b5f5b82811015613d8557848901518255600182019150602085019450602081019050613d60565b86831015613da25784890151613d9e601f891682613cb1565b8355505b6001600288020188555050505b505050505050565b5f604082019050613dca5f83018561343e565b8181036020830152613ddc818461348f565b90509392505050565b7f4f6e6c79204469737472696275746f72732063616e20616c6c207468697300005f82015250565b5f613e19601e83613457565b9150613e2482613de5565b602082019050919050565b5f6020820190508181035f830152613e4681613e0d565b9050919050565b7f4f6e6c792052657461696c6572732063616e20616c6c207468697300000000005f82015250565b5f613e81601b83613457565b9150613e8c82613e4d565b602082019050919050565b5f6020820190508181035f830152613eae81613e75565b9050919050565b7f4974656d2068617320746f2062652073686970706564000000000000000000005f82015250565b5f613ee9601683613457565b9150613ef482613eb5565b602082019050919050565b5f6020820190508181035f830152613f1681613edd565b9050919050565b7f4e487b71000000000000000000000000000000000000000000000000000000005f52601160045260245ffd5b5f613f54826131d9565b9150613f5f836131d9565b9250828201905080821115613f7757613f76613f1d565b5b92915050565b7f4974656d2068617320746f2062652072656365697665640000000000000000005f82015250565b5f613fb1601783613457565b9150613fbc82613f7d565b602082019050919050565b5f6020820190508181035f830152613fde81613fa5565b9050919050565b7f616d6f756e742073656e74206973206e6f7420656e6f756768000000000000005f82015250565b5f614019601983613457565b915061402482613fe5565b602082019050919050565b5f6020820190508181035f8301526140468161400d565b9050919050565b5f614057826131d9565b9150614062836131d9565b925082820390508181111561407a57614079613f1d565b5b92915050565b5f81905092915050565b7f6275794974656d000000000000000000000000000000000000000000000000005f82015250565b5f6140be600783614080565b91506140c98261408a565b600782019050919050565b5f6140de826140b2565b9150819050919050565b5f6140f28261344d565b6140fc8185614080565b935061410c818560208601613467565b80840191505092915050565b5f61412382846140e8565b915081905092915050565b7f70757263686173654974656d00000000000000000000000000000000000000005f82015250565b5f614162600c83614080565b915061416d8261412e565b600c82019050919050565b5f61418282614156565b9150819050919050565b7f4974656d2068617320746f20626520666f722073616c650000000000000000005f82015250565b5f6141c0601783613457565b91506141cb8261418c565b602082019050919050565b5f6020820190508181035f8301526141ed816141b4565b9050919050565b7f4974656d2068617320746f2062652070726f63657373656400000000000000005f82015250565b5f614228601883613457565b9150614233826141f4565b602082019050919050565b5f6020820190508181035f8301526142558161421c565b9050919050565b7f4974656d2068617320746f20626520736f6c64000000000000000000000000005f82015250565b5f614290601383613457565b915061429b8261425c565b602082019050919050565b5f6020820190508181035f8301526142bd81614284565b9050919050565b7f6163636f756e742063616e206e6f74206265207468652067656e6573697320615f8201527f63636f756e740000000000000000000000000000000000000000000000000000602082015250565b5f61431e602683613457565b9150614329826142c4565b604082019050919050565b5f6020820190508181035f83015261434b81614312565b9050919050565b7f54686973206163636f756e742073686f756c64276e74206861766520616363655f8201527f737320696e697469616c6c790000000000000000000000000000000000000000602082015250565b5f6143ac602c83613457565b91506143b782614352565b604082019050919050565b5f6020820190508181035f8301526143d9816143a0565b9050919050565b7f54686973206163636f756e742073686f756c64206861766520616363657373205f8201527f696e697469616c6c790000000000000000000000000000000000000000000000602082015250565b5f61443a602983613457565b9150614445826143e0565b604082019050919050565b5f6020820190508181035f8301526144678161442e565b905091905056fea2646970667358221220e5dae4b8846442ef9d51c57d2012aef9c29ee1cc80c192c30a9e0f3087dae22064736f6c63430008140033",
  "immutableReferences": {},
  "source": "// SPDX-License-Identifier: GPL-3.0\npragma solidity >=0.4.24;\n\n\nimport \"../coffeeaccesscontrol/ConsumerRole.sol\";\nimport \"../coffeeaccesscontrol/DistributorRole.sol\";\nimport \"../coffeeaccesscontrol/FarmerRole.sol\";\nimport \"../coffeeaccesscontrol/RetailerRole.sol\";\n\n\n// Define a contract 'Supplychain'\ncontract SupplyChain is FarmerRole, DistributorRole, RetailerRole, ConsumerRole  {\n\n  // Define 'owner'\n  address owner;\n\n  // Define a variable called 'upc' for Universal Product Code (UPC)\n  uint  upc;\n\n  // Define a variable called 'sku' for Stock Keeping Unit (SKU)\n  uint  sku;\n\n  // Define a public mapping 'items' that maps the UPC to an Item.\n  mapping (uint => Item) items;\n\n  // Define a public mapping 'itemsHistory' that maps the UPC to an array of TxHash, \n  // that track its journey through the supply chain -- to be sent from DApp.\n  mapping (uint => string[]) itemsHistory;\n  \n  // Define enum 'State' with the following values:\n  enum State \n  { \n    Harvested,  // 0\n    Processed,  // 1\n    Packed,     // 2\n    ForSale,    // 3\n    Sold,       // 4\n    Shipped,    // 5\n    Received,   // 6\n    Purchased   // 7\n    }\n\n  State constant defaultState = State.Harvested;\n\n  // Define a struct 'Item' with the following fields:\n  struct Item {\n    uint    sku;  // Stock Keeping Unit (SKU)\n    uint    upc; // Universal Product Code (UPC), generated by the Farmer, goes on the package, can be verified by the Consumer\n    address ownerID;  // Metamask-Ethereum address of the current owner as the product moves through 8 stages\n    address payable  originFarmerID; // Metamask-Ethereum address of the Farmer\n    string  originFarmName; // Farmer Name\n    string  originFarmInformation;  // Farmer Information\n    string  originFarmLatitude; // Farm Latitude\n    string  originFarmLongitude;  // Farm Longitude\n    uint    productID;  // Product ID potentially a combination of upc + sku\n    string  productNotes; // Product Notes\n    uint    productPrice; // Product Price\n    State   itemState;  // Product State as represented in the enum above\n    address payable  distributorID;  // Metamask-Ethereum address of the Distributor\n    address payable  retailerID; // Metamask-Ethereum address of the Retailer\n    address payable  consumerID; // Metamask-Ethereum address of the Consumer\n  }\n\n\n// -------------- optional ----------------\n\n// so this is optional, i want to allow farmers store ipfs hash also\n\n  struct Harvest {\n    uint upc;\n    string imageIpfsHash;\n  }\n\n  mapping(uint => Harvest) private harvests; //so this is a mapping upc to Harvest struct\n\n  //Event to log when an image is uploaded\n  event ImageUploaded(uint upc, string imageIpfsHash);\n\n  // Function to allow the farmer to upload an image and associate it with a UPC, just paste in the ipfs hash\n  function upload(uint  _upc, string memory _imageIpfsHash) public onlyFarmer verifyCaller(msg.sender) {\n    require(bytes(harvests[_upc].imageIpfsHash).length == 0, \"Ipfs hash already uploaded for this upc\");\n\n  //create a new harvest staruct\n    Harvest memory newHarvest = Harvest({\n      upc: _upc,\n      imageIpfsHash: _imageIpfsHash\n    });\n\n  harvests[_upc] = newHarvest; //set the mapping\n\n  //emit the event\n  emit ImageUploaded(_upc, _imageIpfsHash);\n\n  }\n\n  // Function to read the image IPFS hash associated with a UPC\n    function read(uint  _upc) public view returns (string memory) {\n        return harvests[_upc].imageIpfsHash;\n    }\n\n// -------------- optional ----------------\n\n\n  // Define 8 events with the same 8 state values and accept 'upc' as input argument\n  event Harvested(uint upc);\n  event Processed(uint upc);\n  event Packed(uint upc);\n  event ForSale(uint upc);\n  event Sold(uint upc);\n  event Shipped(uint upc);\n  event Received(uint upc);\n  event Purchased(uint upc);\n\n   // Define a modifer that checks to see if msg.sender == owner of the contract\n  modifier onlyOwner() virtual  {\n    require(msg.sender == owner, \"only owner can call this\");\n    _;\n  }\n\n  // Define a modifer that verifies the Caller\n  modifier verifyCaller (address _address) {\n    require(msg.sender == _address, \"you are not allowed to perform this operation\"); \n    _;\n  }\n\n  // Define a modifier that checks if the paid amount is sufficient to cover the price\n  modifier paidEnough(uint _price) { \n    require(msg.value >= _price, \"amount sent is not enough\"); \n    _;\n  }\n  \n  // Define a modifier that checks the price and refunds the remaining balance\n  // Define a modifier that checks the price and refunds the remaining balance\nmodifier checkValue(uint _upc, string memory mode) {\n    _; // Run the function first, then proceed to run the contents of the modifier\n\n    uint _price = items[_upc].productPrice; // Price of the item\n    uint amountToReturn = msg.value - _price; // Amount to send back if the amount sent in is more than the product price\n\n    // payable(msg.sender).transfer(amountToReturn);\n\n    if (keccak256(abi.encodePacked(mode)) == keccak256(abi.encodePacked(\"buyItem\"))) {\n        items[_upc].distributorID.transfer(amountToReturn);\n    } else if (keccak256(abi.encodePacked(mode)) == keccak256(abi.encodePacked(\"purchaseItem\"))) {\n        items[_upc].consumerID.transfer(amountToReturn); // Send change to the final consumer back\n    }\n}\n\n   // Define a modifier that checks if an item.state of a upc is Harvested\n  modifier harvested(uint _upc) {\n    require(items[_upc].itemState == State.Harvested, \"Item has to be harvested\");\n    _;\n  }\n\n  // Define a modifier that checks if an item.state of a upc is Processed\n  modifier processed(uint _upc) {\n    require(items[_upc].itemState == State.Processed, \"Item has to be processed\");\n    _;\n  }\n  \n   // Define a modifier that checks if an item.state of a upc is Packed\n  modifier packed(uint _upc) {\n    require(items[_upc].itemState == State.Packed, \"Item has to be packed\");\n    _;\n  }\n\n  // Define a modifier that checks if an item.state of a upc is ForSale\n  modifier forSale(uint _upc) {\n    require(items[_upc].itemState == State.ForSale, \"Item has to be for sale\");\n    _;\n  }\n\n  // Define a modifier that checks if an item.state of a upc is Sold\n  modifier sold(uint _upc) {\n    require(items[_upc].itemState == State.Sold, \"Item has to be sold\");\n    _;\n  }\n  \n  // Define a modifier that checks if an item.state of a upc is Shipped\n  modifier shipped(uint _upc) {\n    require(items[_upc].itemState == State.Shipped, \"Item has to be shipped\");\n    _;\n  }\n\n  // Define a modifier that checks if an item.state of a upc is Received\n  modifier received(uint _upc) {\n    require(items[_upc].itemState == State.Received, \"Item has to be received\");\n    _;\n  }\n\n  // Define a modifier that checks if an item.state of a upc is Purchased\n  modifier purchased(uint _upc) {\n    require(items[_upc].itemState == State.Purchased, \"Item has to be purchased\");\n    _;\n  }\n\n  // In the constructor set 'owner' to the address that instantiated the contract\n  // and set 'sku' to 1\n  // and set 'upc' to 1\n  constructor() payable {\n    owner = msg.sender;\n    sku = 1;\n    upc = 1;\n  }\n\n   // Define a function 'kill' if required\n  function kill() public payable  onlyOwner {\n    if (msg.sender == owner) {\n      payable(owner).transfer(address(this).balance); // Send the balance of the contract to the owner\n    }\n  }\n\n   // Define a function 'harvestItem' that allows a farmer to mark an item 'Harvested'\n  function harvestItem(uint _upc, address payable _originFarmerID, string memory _originFarmName, string memory _originFarmInformation, string memory  _originFarmLatitude, string memory  _originFarmLongitude, string memory  _productNotes) public onlyFarmer {\n     // Increment sku\n    sku = sku + 1;\n    // Add the new item as part of Harvest\n    Item memory newItem = Item({\n        sku: sku,\n        upc: _upc,\n        ownerID: address(0), //this can be the msg.sender, so as to make sure other farmers cant process, pack, or put for sale other farmers goods, but this app doesnt check for that, so all farmers can help other farmers change the state of their goods\n        originFarmerID: _originFarmerID,\n        originFarmName: _originFarmName,\n        originFarmInformation: _originFarmInformation,\n        originFarmLatitude: _originFarmLatitude,\n        originFarmLongitude: _originFarmLongitude,\n        productNotes: _productNotes,\n        distributorID: payable(address(0)),\n        retailerID: payable(address(0)),\n        consumerID: payable(address(0)),\n        productID: _upc + sku,\n        productPrice: 0,\n        itemState: State.Harvested\n    });\n   \n    // Emit the appropriate event\n    emit Harvested(_upc);\n\n    items[_upc] = newItem;\n  }\n\n  // Define a function 'processtItem' that allows a farmer to mark an item 'Processed'\n  function processItem(uint _upc) public harvested(_upc) verifyCaller(msg.sender) onlyFarmer  { //before its processed it should be in harvestetd state\n  // Call modifier to check if upc has passed previous supply chain stage\n  \n  // Call modifier to verify caller of this function\n  \n    // Update the appropriate fields\n    items[_upc].itemState = State.Processed;\n    \n    // Emit the appropriate event\n    emit Processed(_upc);\n    \n  }\n\n  // Define a function 'packItem' that allows a farmer to mark an item 'Packed'\n  function packItem(uint _upc) public processed(_upc) verifyCaller(msg.sender) onlyFarmer  {\n  // Call modifier to check if upc has passed previous supply chain stage\n  \n  // Call modifier to verify caller of this function\n  \n    // Update the appropriate fields\n    items[_upc].itemState = State.Packed;\n    \n    // Emit the appropriate event\n    emit Packed(_upc);\n    \n  }\n\n  // Define a function 'sellItem' that allows a farmer to mark an item 'ForSale'\n  function sellItem(uint _upc, uint _price) public packed(_upc) verifyCaller(msg.sender) onlyFarmer {\n  // Call modifier to check if upc has passed previous supply chain stage\n  // Call modifier to verify caller of this function\n  \n    // Update the appropriate fields\n    items[_upc].itemState = State.ForSale;\n    items[_upc].productPrice = _price;\n    \n    // Emit the appropriate event\n    emit ForSale(_upc);\n    \n  }\n\n  // Define a function 'buyItem' that allows the disributor to mark an item 'Sold'\n  // Use the above defined modifiers to check if the item is available for sale, if the buyer has paid enough, \n  // and any excess ether sent is refunded back to the buyer\n  function buyItem(uint _upc) public payable forSale(_upc)\n   paidEnough(msg.value) \n  checkValue(_upc, \"buyItem\")\n   onlyDistributor {\n    // Call modifier to check if upc has passed previous supply chain stage\n    // Call modifer to check if buyer has paid enough\n    // Call modifer to send any excess ether back to buyer\n    \n    // Update the appropriate fields - ownerID, distributorID, itemState\n    items[_upc].ownerID = payable(msg.sender);\n    items[_upc].distributorID = payable(msg.sender);\n    items[_upc].itemState = State.Sold;\n    \n    // Transfer money to farmer\n    items[_upc].originFarmerID.transfer(msg.value);\n    \n    // emit the appropriate event\n    emit Sold(_upc);\n  }\n\n  // Define a function 'shipItem' that allows the distributor to mark an item 'Shipped'\n  // Use the above modifers to check if the item is sold\n  function shipItem(uint _upc) public sold(_upc) verifyCaller(msg.sender) onlyDistributor {\n    // Call modifier to check if upc has passed previous supply chain stage\n    // Call modifier to verify caller of this function\n    // Update the appropriate fields\n    items[_upc].itemState = State.Shipped;\n    \n    // Emit the appropriate event\n    emit Shipped(_upc);\n    \n  }\n\n  // Define a function 'receiveItem' that allows the retailer to mark an item 'Received'\n  // Use the above modifiers to check if the item is shipped\n  function receiveItem(uint _upc) public shipped(_upc) onlyRetailer {\n    // Call modifier to check if upc has passed previous supply chain stage\n    \n    // Access Control List enforced by calling Smart Contract / DApp\n    \n    // Update the appropriate fields - ownerID, retailerID, itemState\n    items[_upc].ownerID = msg.sender;\n    items[_upc].retailerID = payable(msg.sender);\n    items[_upc].itemState = State.Received;\n    \n    // Emit the appropriate event\n    emit Received(_upc);\n    \n  }\n\n    // Define a function 'purchaseItem' that allows the consumer to mark an item 'Purchased'\n  // Use the above modifiers to check if the item is received\n  function purchaseItem(uint _upc) public payable  received(_upc) paidEnough(msg.value) onlyConsumer checkValue(_upc, \"purchaseItem\") {\n    // Call modifier to check if upc has passed previous supply chain stage\n    // Access Control List enforced by calling Smart Contract / DApp\n\n    // Update the appropriate fields - ownerID, consumerID, itemState\n    items[_upc].ownerID = msg.sender;\n    items[_upc].consumerID = payable(msg.sender);\n    items[_upc].itemState = State.Purchased;\n\n    //send money to retailer\n    items[_upc].retailerID.transfer(msg.value);\n    \n    // Emit the appropriate event\n    emit Purchased(_upc);\n    \n  }\n\n  // Define a function 'fetchItemBufferOne' that fetches the data\n  function fetchItemBufferOne(uint _upc) public view returns (\n  uint  itemSKU,\n  uint itemUPC,\n  address ownerID,\n  address originFarmerID,\n  string memory  originFarmName,\n  string memory originFarmInformation,\n  string memory originFarmLatitude,\n  string memory  originFarmLongitude) {\n  // Assign values to the 8 parameters\n  Item memory item = items[_upc];\n    \n  return (\n    item.sku,  // Use item.sku instead of itemSKU\n    item.upc,\n    item.ownerID,\n    item.originFarmerID,\n    item.originFarmName,\n    item.originFarmInformation,\n    item.originFarmLatitude,\n    item.originFarmLongitude\n   );\n  }\n\n  // Define a function 'fetchItemBufferTwo' that fetches the data\n  function fetchItemBufferTwo(uint _upc) public view returns (\n  uint    itemSKU,\n  uint    itemUPC,\n  uint    productID,\n  string memory  productNotes,\n  uint    productPrice,\n  uint    itemState,\n  address distributorID,\n  address retailerID,\n  address consumerID\n  ) {\n    // Assign values to the 9 parameters\n   Item memory item = items[_upc];\n    \n  return (\n    item.sku,\n    item.upc,\n    item.productID,\n    item.productNotes,\n    item.productPrice,\n    uint(item.itemState),  // Convert the enum to uint if needed\n    item.distributorID,\n    item.retailerID,\n    item.consumerID\n  );\n  }\n}",
  "sourcePath": "/Users/femi/Github/udacity-Blockchain/architect-blockchain-supplychain/src/truffle/contracts/coffeebase/SupplyChain.sol",
  "compiler": {
    "name": "solc",
    "version": "0.8.20+commit.a1b79de6.Emscripten.clang"
  },
  "schemaVersion": "3.4.3",
  "updatedAt": "2024-01-15T11:56:03.027Z",
  "networkType": "ethereum",
  "devdoc": {
    "kind": "dev",
    "methods": {},
    "version": 1
  },
  "userdoc": {
    "kind": "user",
    "methods": {},
    "version": 1
  }
}